S01600006573636C61766F315F726965676F2E737265637B
S11300000C9434000C9451000C9451000C94510045
S11300100C9451000C9451000C9451000C94510018
S11300200C9451000C9451000C9451000C94510008
S11300300C9451000C9451000C94B0010C94510098
S11300400C9451000C9451000C9451000C945100E8
S11300500C9451000C9451000C9451000C945100D8
S11300600C9451000C94510011241FBECFEFD8E022
S1130070DEBFCDBF11E0A0E0B1E0ECEBF5E002C0E3
S113008005900D92AE35B107D9F721E0AEE5B1E0A8
S113009001C01D92A236B207E1F70E947E000C94C3
S11300A0DC020C94000080E480937C0087E8809359
S11300B07A000895ECE7F0E09081907F8F70892BAF
S11300C08083EAE7F0E080818064808380917A0015
S11300D086FDFCCF809178009091790008958AB1D3
S11300E080618AB98BB18F7E8BB908958BB18061A1
S11300F08BB908958BB18F7E8BB90895CF93DF931D
S113010000D000D01F92CDB7DEB70E9453000E94EA
S113011011010E946F000E94E0010E94A7017894DF
S113012080E091E00E94F3010E94D5014B015C0143
S113013019821A821B821C82412C512C32011D828D
S11301400E94D5016B017C01DC01CB01881999095E
S1130150AA09BB09883E9340A105B105F0F10E94AC
S11301606D015C010E9471018C018DE191E00E949E
S1130170F301C5010E94000285E291E00E94F301AF
S1130180C8010E94000282E391E00E94F3018D8184
S113019081111BC008321105DCF489819A81AB817D
S11301A0BC81C816D906EA06FB06A8F00E9418010D
S11301B00E94760086E391E00E94F3012601370154
S11301C04601570191E09D8308C04601570105C0CF
S11301D04601570102C046015701AD81A13009F023
S11301E0AFCFD701C60184199509A609B709883884
S11301F09341A105B10508F4A3CF0E941C010E94FC
S11302007A00D701C601805F984DAF4FBF4F8983F5
S11302109A83AB83BC838BE491E00E94F3011D823B
S11302208FCF8AB180628AB98BB18F7D8BB90895E3
S11302308BB180628BB908958BB18F7D8BB9089592
S11302404F925F926F927F92AF92BF92CF92DF9262
S1130250EF92FF920F931F93CF93DF93CDB7DEB747
S113026029013A019B01AC012419350946095709B2
S113027089899A89AB89BC89BC01CD016A197B093A
S11302808C099D090E944902A80197012419350986
S1130290460957090E946D02C601B501620F731F1A
S11302A0841F951FDF91CF911F910F91FF90EF90C5
S11302B0DF90CF90BF90AF907F906F905F904F9002
S11302C008958617970734F0481759072CF4842F9C
S11302D0952F0895862F972F089580E00E945A0045
S11302E00895AF92BF92CF92DF92EF92FF920F9355
S11302F01F930E946D01BC0180E090E01F921F9249
S11303001F9224E62F93A12CB12C65011CE2E12E4F
S1130310FF24F39400E010E02EE432E040E050E0EB
S11303200E9420010F900F900F900F90DC01CB01E1
S113033044E650E060E070E00E9461011F910F917B
S1130340FF90EF90DF90CF90BF90AF90089582E040
S113035084BD93E095BD99EF97BD80936E00089599
S11303601F920F920FB60F9211248F939F93AF9306
S1130370BF9380915E0190915F01A0916001B09163
S113038061010196A11DB11D80935E0190935F01EF
S1130390A0936001B0936101BF91AF919F918F9140
S11303A00F900FBE0F901F901895F89460915E0106
S11303B070915F018091600190916101789408953A
S11303C01092C50087E68093C40088E08093C10042
S11303D086E08093C20008959091C00095FFFCCF01
S11303E08093C6000895CF93DF93EC0103C0219658
S11303F00E94EC0188818111FACFDF91CF91089599
S11304001F93CF93DF93CDB7DEB727970FB6F8943A
S1130410DEBF0FBECDBF99232CF491958195910930
S113042021E001C020E00097A1F480E30E94EC01E8
S113043026C06AE070E00E945902E1E0F0E0EC0FAF
S1130440FD1FE10FF11D805D8083862F972F1F5FB5
S113045001C010E01816190664F3222371F08DE22E
S11304600E94EC010AC01150E1E0F0E0EC0FFD1F26
S1130470E10FF11D80810E94EC011111F4CF279648
S11304800FB6F894DEBF0FBECDBFDF91CF911F91A1
S11304900895DB018F939F930E948C02BF91AF91CB
S11304A0A29F800D911DA39F900DB29F900D1124CA
S11304B0089597FB072E16F4009407D077FD09D012
S11304C00E94970207FC05D03EF4909581959F4FBA
S11304D00895709561957F4F0895052E97FB1EF43E
S11304E000940E94840257FD07D00E94AB0207FCCF
S11304F003D04EF40C948402509540953095219588
S11305003F4F4F4F5F4F089590958095709561953B
S11305107F4F8F4F9F4F08950E94CD02A59F900D4E
S1130520B49F900DA49F800D911D11240895AA1BC2
S1130530BB1B51E107C0AA1FBB1FA617B70710F0CA
S1130540A61BB70B881F991F5A95A9F780959095FC
S1130550BC01CD010895A1E21A2EAA1BBB1BFD010B
S11305600DC0AA1FBB1FEE1FFF1FA217B307E4078E
S1130570F50720F0A21BB30BE40BF50B661F771FE6
S1130580881F991F1A9469F76095709580959095C6
S11305909B01AC01BD01CF010895A29FB001B39F9F
S11305A0C001A39F700D811D1124911DB29F700D78
S10F05B0811D1124911D0895F894FFCFC3
S11305BC5065726966657269636F2031202D205213
S11305CC6965676F206C6973746F0D0A00437275EB
S11305DC646F3A2000207C2048756D656461643A30
S11305EC2000250D0A003E3E20426F6D62612045BD
S11305FC4E43454E444944410D0A003E3E20426F51
S111060C6D626120415041474144410D0A0096
S9030000FC
