S01A00006C61626F7261746F72696F335F32343733342E73726563D6
S11300000C9434000C9451000C9451000C94510045
S11300100C9451000C9451000C9451000C94510018
S11300200C9451000C9451000C9451000C94510008
S11300300C9451000C9451000C9451000C945100F8
S11300400C9451000C9421010C9451000C94510017
S11300500C9451000C9451000C9451000C945100D8
S11300600C9451000C94510011241FBECFEFD8E022
S1130070DEBFCDBF11E0A0E0B1E0E6E3F9E002C0ED
S113008005900D92AA31B107D9F721E0AAE1B1E0B8
S113009001C01D92AF31B207E1F70E94D1000C9468
S11300A099040C94000080E480937C0087E880939A
S11300B07A000895ECE7F0E09081907F8F70892BAF
S11300C08083EAE7F0E080818064808380917A0015
S11300D086FDFCCF809178009091790008959C0171
S11300E0A8E8B3E10E94A0012FEF33E040E050E024
S11300F00E947E01C9010895EF92FF920F931F930E
S1130100CF93DF93CDB7DEB7A8970FB6F894DEBFD1
S11301100FBECDBFF82EE92EAB018B0116950795C6
S113012016950795169507959801A5ECB0E20E94DF
S1130130A001FC01F295E295EF70EF27FF70EF2725
S113014028EE33E0E29FC001E39F900DF29F900DF3
S11301501124481B590B5F934F93FF93EF93EF9236
S1130160FF9280E091E09F938F938E010F5F1F4F6A
S11301701F930F930E94AF01C8010E9471010FB633
S1130180F894DEBF0FBECDBFA8960FB6F894DEBFBD
S11301900FBECDBFDF91CF911F910F91FF90EF90D4
S11301A008950E9453000E940A0160E875E280E00D
S11301B090E00E944301789480E00E945A008C01F0
S11301C081E00E945A00EC01C8010E946F00082FD0
S11301D0192FCE010E946F00D82FC92F282F492F25
S11301E0602F812F0E941601602F712F80E191E012
S11301F00E947C006D2F7C2F85E191E00E947C00A1
S11302002FEF89E698E1215080409040E1F700C04B
S11302100000D2CF84B1806184B984B1837D84B974
S113022080911B018EBD80EC8CBD089590911A01C4
S1130230911106C0EBE1F1E0808361834283238363
S113024008951F920F920FB60F9211248F93EF937C
S1130250FF9380911A018F5F80931A0180911A0194
S1130260843010F010921A01E0911A01F0E0E55E7A
S1130270FE4F80818EBDFF91EF918F910F900FBE45
S11302800F901F901895DC01CB01880F991FAA1FAE
S1130290BB1F880F991FAA1FBB1F9C01AD01220F12
S11302A0331F441F551F220F331F441F551F60E087
S11302B074E284EF90E00E947E0121503109309372
S11302C0C5002093C40088E98093C10086E0809330
S11302D0C20008959091C00095FFFCCF8093C600A2
S11302E00895CF93DF93EC0103C00E946A01219625
S11302F088818111FACFDF91CF910895A1E21A2E5E
S1130300AA1BBB1BFD010DC0AA1FBB1FEE1FFF1FB5
S1130310A217B307E407F50720F0A21BB30BE40B05
S1130320F50B661F771F881F991F1A9469F760954C
S11303307095809590959B01AC01BD01CF01089506
S1130340A29FB001B39FC001A39F700D811D112412
S1130350911DB29F700D811D1124911D0895AEE071
S1130360B0E0E5EBF1E00C9470040D891E8986E0A1
S11303708C831A8309838FEF9FE79E838D83AE015D
S1130380475E5F4F6F89788DCE0101960E94D1013F
S1130390EF81F885E00FF11F10822E96E4E00C94B3
S11303A08C04ABE0B0E0E7EDF1E00C9462046C0186
S11303B07B018A01FC0117821682838181FFCCC1F3
S11303C0CE0101963C01F6019381F70193FD8591DD
S11303D093FF81917F01882309F4BAC1853239F4EE
S11303E093FD859193FF81917F01853229F4B601B4
S11303F090E00E94C803E7CF912C212C312CFFE11F
S1130400F315D8F08B3279F038F4803279F08332F6
S1130410A1F4232D20611DC08D3261F0803369F475
S1130420232D216016C0832D8260382EE32DE460D5
S11304303E2E2AC0F32DF8601DC037FC2DC020EDE0
S1130440280F2A3040F08E32B9F436FC81C1232DB6
S11304502064322E19C036FE06C08AE0989E200D14
S11304601124922E11C0EAE02E9E200D1124222E7A
S1130470F32DF0623F2E08C08C3621F4832D806862
S1130480382E02C0883641F4F70193FD859193FF1D
S113049081917F018111B3CF982F9F7D9554933023
S11304A028F40C5F1F4F9FE399830DC0833631F00E
S11304B0833771F0833509F059C021C0F801808178
S11304C089830E5F1F4F88248394912C530113C09A
S11304D02801F2E04F0E511CF801A080B18036FED5
S11304E003C0692D70E002C06FEF7FEFC5010E9469
S11304F0BD034C018201F32DFF773F2E16C0280166
S113050022E0420E511CF801A080B18036FE03C0E7
S1130510692D70E002C06FEF7FEFC5010E94B20346
S11305204C01F32DF0683F2E820133FC1BC0822D59
S113053090E088169906B0F4B60180E290E00E943B
S1130540C8032A94F4CFF50137FC859137FE8191D5
S11305505F01B60190E00E94C80321102A9421E0B3
S1130560821A91088114910471F7E8C0843611F05D
S1130570893641F5F80137FE07C0608171818281B7
S113058093810C5F1F4F08C060817181072E000C9E
S1130590880B990B0E5F1F4FF32DFF763F2E97FFAD
S11305A009C090958095709561957F4F8F4F9F4FAF
S11305B0F0683F2E2AE030E0A3010E940404882E54
S11305C0861845C0853731F4232D2F7EB22E2AE0BC
S11305D030E025C0932D997FB92E8F36C1F018F4E1
S11305E0883579F0B5C0803719F0883721F0B0C06C
S11305F0E92FE061BE2EB4FE0DC0FB2DF460BF2ECA
S113060009C034FE0AC0292F2660B22E06C028E095
S113061030E005C020E130E002C020E132E0F80122
S1130620B7FE07C060817181828193810C5F1F4F87
S113063006C06081718180E090E00E5F1F4FA301CE
S11306400E940404882E8618FB2DFF773F2E36FE69
S11306500DC0232D2E7FA22E891458F434FE0BC016
S113066032FC09C0832D8E7EA82E05C0B82CA32C85
S113067003C0B82C01C0B92CA4FE0FC0FE01E80DC4
S1130680F11D8081803321F49A2D997EA92E09C011
S1130690A2FE06C0B394B39404C08A2D867809F0F0
S11306A0B394A3FC11C0A0FE06C0B21488F4280CB5
S11306B0922C9B180EC0B21460F4B60180E290E054
S11306C00E94C803B394F7CFB21418F42B1802C0D5
S11306D0982C212CA4FE10C0B60180E390E00E9467
S11306E0C803A2FE17C0A1FC03C088E790E002C0C3
S11306F088E590E0B6010CC08A2D867859F0A1FEF9
S113070002C08BE201C080E2A7FC8DE2B60190E05A
S11307100E94C803891438F4B60180E390E00E9473
S1130720C8039A94F7CF8A94F301E80DF11D8081F0
S1130730B60190E00E94C8038110F5CF222009F48D
S113074042CEB60180E290E00E94C8032A94F6CF1C
S1130750F6018681978102C08FEF9FEF2B96E2E12D
S11307600C947E04FC010590615070400110D8F790
S1130770809590958E0F9F1F0895FC0161507040E5
S113078001900110D8F7809590958E0F9F1F0895C2
S11307900F931F93CF93DF93FB01238121FD03C0AC
S11307A08FEF9FEF2CC022FF16C046815781248112
S11307B035814217530744F4A081B1819D012F5F15
S11307C03F4F318320838C93268137812F5F3F4FA6
S11307D03783268314C08B01EC01FB010084F1856F
S11307E0E02D0995892BE1F6D80116968D919C91FF
S11307F01797019617969C938E931697CE01DF91C7
S1130800CF911F910F910895FA01AA27283051F131
S1130810203181F1E8946F936E7F6E5F7F4F8F4F2D
S11308209F4FAF4FB1E03ED0B4E03CD0670F781F8C
S1130830891F9A1FA11D680F791F8A1F911DA11D71
S11308406A0F711D811D911DA11D20D009F46894AA
S11308503F912AE0269F11243019305D3193DEF652
S1130860CF010895462F4770405D4193B3E00FD008
S1130870C9F7F6CF462F4F70405D4A3318F0495DF3
S113088031FD4052419302D0A9F7EACFB4E0A695D6
S11308909795879577956795BA95C9F700976105F8
S11308A0710508959B01AC010A2E0694579547954E
S11308B037952795BA95C9F7620F731F841F951F43
S11308C0A01D08952F923F924F925F926F927F9254
S11308D08F929F92AF92BF92CF92DF92EF92FF924C
S11308E00F931F93CF93DF93CDB7DEB7CA1BDB0BF8
S11308F00FB6F894DEBF0FBECDBF09942A8839889D
S113090048885F846E847D848C849B84AA84B984A3
S1130910C884DF80EE80FD800C811B81AA81B981AF
S1130920CE0FD11D0FB6F894DEBF0FBECDBFED01C3
S10909300895F894FFCFC6
S113093625733A2025752E2530337520560D0A0069
S10D0946506F743100506F743200DA
S9030000FC
