:100000000C9434000C9451000C9451000C94510049
:100010000C9451000C9451000C9451000C9451001C
:100020000C9451000C9451000C9451000C9451000C
:100030000C9451000C9451000C9479010C945100D3
:100040000C9451000C9451000C9451000C945100EC
:100050000C9451000C9451000C9451000C945100DC
:100060000C94D4010C94510011241FBECFEFD8E0A2
:10007000DEBFCDBF11E0A0E0B1E0E4E5F6E002C0F4
:1000800005900D92AE38B107D9F721E0AEE8B1E0A6
:1000900001C01D92AA39B207E1F70E947E000C94BC
:1000A00028030C94000080E480937C0087E8809310
:1000B0007A000895ECE7F0E09081907F8F70892BB3
:1000C0008083EAE7F0E080818064808380917A0019
:1000D00086FDFCCF809178009091790008958AB1D7
:1000E00080618AB98BB18F7E8BB908958BB18061A5
:1000F0008BB908958BB18F7E8BB90895CF93DF9321
:100100001F92CDB7DEB70E9453000E94DA000E9412
:100110006F000E942C020E94700188E00E94A901D9
:10012000789480E091E00E943F020E949E014B0182
:100130005C010E949E016B017C010E94CA01882320
:10014000A9F00E94CD01882349F00E94E1000E949D
:10015000760081E391E00E943F0208C00E94E50022
:100160000E947A0089E591E00E943F02D701C60112
:1001700088199909AA09BB09883E9340A105B105D0
:10018000C0F20E943A01B82EA92E8FE791E00E949A
:100190003F028B2D9A2D0E944C0289E891E00E942B
:1001A0003F02B98261E0CE0101960E94B001460192
:1001B0005701BFCF8AB180628AB98BB18F7D8BB96D
:1001C00008958BB18F7D8BB908958BB180628BB907
:1001D00008954F925F926F927F92AF92BF92CF92AB
:1001E000DF92EF92FF920F931F93CF93DF93CDB7E0
:1001F000DEB729013A019B01AC01241935094609F2
:10020000570989899A89AB89BC89BC01CD016A19D2
:100210007B098C099D090E949502A8019701241968
:100220003509460957090E94B902C601B501620F96
:10023000731F841F951FDF91CF911F910F91FF9026
:10024000EF90DF90CF90BF90AF907F906F905F90D6
:100250004F9008958617970734F0481759072CF4E4
:10026000842F952F0895862F972F089580E00E9460
:100270005A000895AF92BF92CF92DF92EF92FF9211
:100280000F931F930E943601BC0180E090E01F9203
:100290001F921F9224E62F93A12CB12C65011CE222
:1002A000E12EFF24F39400E010E02EE432E040E081
:1002B00050E00E94E9000F900F900F900F90DC012A
:1002C000CB0144E650E060E070E00E942A011F91FB
:1002D0000F91FF90EF90DF90CF90BF90AF90089577
:1002E00082E084BD93E095BD99EF97BD80936E0049
:1002F00008951F920F920FB60F9211248F939F9320
:10030000AF93BF9380918E0190918F01A091900146
:10031000B09191010196A11DB11D80938E01909322
:100320008F01A0939001B0939101BF91AF919F91E4
:100330008F910F900FBE0F901F901895F8946091B9
:100340008E0170918F01809190019091910178942C
:100350000895880F8093BA0085E48093BC000895C7
:10036000DC01653008F064E0F89490E00BC0292FC0
:1003700030E0FD01E20FF31F4081F901EA56FE4F24
:1003800040839F5F961798F36093950110929401B4
:1003900078940895809192010895F89410929201B2
:1003A00080919301789408951F920F920FB60F9247
:1003B00011248F939F93EF93FF938091B900887FCF
:1003C000883A61F028F4803661F1803871F138C0E4
:1003D000803C09F1883CF9F0883B91F590919401BB
:1003E00080919501981780F4E091940181E08E0F3F
:1003F00080939401F0E0EA56FE4F80818093BB0029
:1004000085EC8093BC001FC08FEF8093BB0085E814
:100410008093BC0018C01092940185EC8093BC00BE
:1004200012C085EC8093BC000EC08091BB0080930D
:10043000930181E08093920185EC8093BC0003C01E
:1004400085EC8093BC00FF91EF919F918F910F906D
:100450000FBE0F901F9018951092C50087E68093ED
:10046000C40088E08093C10086E08093C2000895B4
:100470009091C00095FFFCCF8093C6000895CF9364
:10048000DF93EC0103C021960E943802888181111C
:10049000FACFDF91CF9108951F93CF93DF93CDB71C
:1004A000DEB727970FB6F894DEBF0FBECDBF9923F6
:1004B0002CF491958195910921E001C020E00097ED
:1004C000A1F480E30E94380226C06AE070E00E9436
:1004D000A502E1E0F0E0EC0FFD1FE10FF11D805DF2
:1004E0008083862F972F1F5F01C010E01816190612
:1004F00064F3222371F08DE20E9438020AC0115089
:10050000E1E0F0E0EC0FFD1FE10FF11D80810E94A2
:1005100038021111F4CF27960FB6F894DEBF0FBE44
:10052000CDBFDF91CF911F910895DB018F939F93F2
:100530000E94D802BF91AF91A29F800D911DA39FF1
:10054000900DB29F900D1124089597FB072E16F47D
:10055000009407D077FD09D00E94E30207FC05D084
:100560003EF4909581959F4F0895709561957F4FCA
:100570000895052E97FB1EF400940E94D00257FDAB
:1005800007D00E94F70207FC03D04EF40C94D0026F
:1005900050954095309521953F4F4F4F5F4F0895AF
:1005A00090958095709561957F4F8F4F9F4F0895DF
:1005B0000E941903A59F900DB49F900DA49F800DDC
:1005C000911D11240895AA1BBB1B51E107C0AA1F4E
:1005D000BB1FA617B70710F0A61BB70B881F991FE4
:1005E0005A95A9F780959095BC01CD010895A1E297
:1005F0001A2EAA1BBB1BFD010DC0AA1FBB1FEE1F9D
:10060000FF1FA217B307E407F50720F0A21BB30BE7
:10061000E40BF50B661F771F881F991F1A9469F763
:1006200060957095809590959B01AC01BD01CF01BF
:100630000895A29FB001B39FC001A39F700D811DBB
:100640001124911DB29F700D811D1124911D0895DB
:04065000F894FFCF4C
:100654005065726966657269636F2031202D20527E
:100664006965676F206C6973746F20286F626564B5
:1006740065636520616C206D6173746572290D0A70
:10068400003E3E20426F6D626120454E43454E441C
:1006940049444120286F7264656E2064656C206D46
:1006A4006173746572290D0A003E3E20426F6D62CB
:1006B40061204150414741444120286F7264656E76
:1006C4002064656C206D6173746572290D0A00489D
:0E06D400756D656461643A2000250D0A000012
:00000001FF
