S01600006573636C61766F315F726965676F2E737265637B
S11300000C9434000C9451000C9451000C94510045
S11300100C9451000C9451000C9451000C94510018
S11300200C9451000C9451000C9451000C94510008
S11300300C9451000C9451000C94FC010C9451004C
S11300400C9451000C9451000C9451000C945100E8
S11300500C9451000C9451000C9451000C945100D8
S11300600C9455020C94510011241FBECFEFD8E01C
S1130070DEBFCDBF11E0A0E0B1E0E2E5F7E002C0F1
S113008005900D92AE3AB107D9F721E0AEEAB1E09E
S113009001C01D92AA3BB207E1F70E947E000C94B6
S11300A0A7030C94000080E480937C0087E880938D
S11300B07A000895ECE7F0E09081907F8F70892BAF
S11300C08083EAE7F0E080818064808380917A0015
S11300D086FDFCCF809178009091790008958AB1D3
S11300E080618AB98BB18F7E8BB908958BB18061A1
S11300F08BB908958BB18F7E8BB90895CF93DF931D
S113010000D000D000D0CDB7DEB70E9453000E94CB
S11301105D010E946F000E94AB020E94F30188E01F
S11301200E942C02789480E091E00E94BE020E941A
S113013021024B015C01312C10E01B821C821D82C8
S11301401E82412C512C320100E00E9421026B01DD
S11301507C010E944D02882389F10E945002823062
S113016089F4112359F10E9468010E947A008DE1FB
S113017091E00E94BE0210E01B821C821D821E823E
S113018000E01CC08230D0F491E0813009F090E0AE
S1130190392E813051F40E9464010E9476008FE26E
S11301A091E00E94BE0211E009C00E9468010E9411
S11301B07A008FE491E00E94BE0211E0D701C601EB
S11301C088199909AA09BB09883E9340A105B1057C
S11301D008F445C00E94B9014C010E94BD015C01B4
S11301E08DE691E00E94BE02C4010E94CB0285E725
S11301F091E00E94BE02C5010E94CB0282E891E018
S11302000E94BE0211111AC0011118C088E2A8167A
S1130210B104A4F48B819C81AD81BE81C816D9063A
S1130220EA06FB0658F00E9464010E94760086E804
S113023091E00E94BE022601370101E0A98211115A
S113024005C081E0013019F080E001C0832D8A836C
S113025062E0CE0101960E9433024601570111115A
S113026074CF013009F071CFD701C6018419950903
S1130270A609B70988389341A105B10508F465CFEB
S11302800E9468010E947A00D701C601805F984DE0
S1130290AF4FBF4F8B839C83AD83BE838BE991E0CB
S11302A00E94BE020E94BD0189831A8262E0CE01CF
S11302B001960E94330200E048CF8AB180628AB975
S11302C08BB18F7D8BB908958BB18F7D8BB90895D8
S11302D08BB180628BB908954F925F926F927F9237
S11302E0AF92BF92CF92DF92EF92FF920F931F9340
S11302F0CF93DF93CDB7DEB729013A019B01AC015F
S1130300241935094609570989899A89AB89BC8911
S1130310BC01CD016A197B098C099D090E94140353
S1130320A801970124193509460957090E94380381
S1130330C601B501620F731F841F951FDF91CF9112
S11303401F910F91FF90EF90DF90CF90BF90AF90EF
S11303507F906F905F904F9008958617970734F0C1
S1130360481759072CF4842F952F0895862F972F1B
S1130370089580E00E945A000895AF92BF92CF92F0
S1130380DF92EF92FF920F931F930E94B901BC0179
S113039080E090E01F921F921F9224E62F93A12CDD
S11303A0B12C65011CE2E12EFF24F39400E010E07F
S11303B02EE432E040E050E00E946C010F900F9078
S11303C00F900F90DC01CB0144E650E060E070E058
S11303D00E94AD011F910F91FF90EF90DF90CF909D
S11303E0BF90AF90089582E084BD93E095BD99EFEE
S11303F097BD80936E0008951F920F920FB60F92CF
S113040011248F939F93AF93BF938091AE019091EA
S1130410AF01A091B001B091B1010196A11DB11D30
S11304208093AE019093AF01A093B001B093B1015A
S1130430BF91AF919F918F910F900FBE0F901F901E
S11304401895F8946091AE017091AF018091B0015C
S11304509091B10178940895880F8093BA0085E44F
S11304608093BC000895DC01653008F064E0F894E2
S113047090E00BC0292F30E0FD01E20FF31F408113
S1130480F901EA54FE4F40839F5F961798F36093F7
S1130490B5011092B401789408958091B201089541
S11304A01092B2018091B30108951F920F920FB67A
S11304B00F9211248F939F93EF93FF938091B90030
S11304C0887F883A61F028F4803861F1883851F1E6
S11304D034C0803C09F1883CF9F0883B71F5909177
S11304E0B4018091B501981780F4E091B40181E0E2
S11304F08E0F8093B401F0E0EA54FE4F8081809324
S1130500BB0085EC8093BC001DC08FEF8093BB00C3
S113051085E88093BC0016C01092B40185EC8093EA
S1130520BC0010C08091BB008093B30181E0809334
S1130530B20185EC8093BC0005C01092B40185EC37
S11305408093BC00FF91EF919F918F910F900FBE0C
S11305500F901F9018951092C50087E68093C400F1
S113056088E08093C10086E08093C2000895909152
S1130570C00095FFFCCF8093C6000895CF93DF930E
S1130580EC0103C021960E94B70288818111FACF41
S1130590DF91CF9108951F93CF93DF93CDB7DEB74B
S11305A027970FB6F894DEBF0FBECDBF99232CF466
S11305B091958195910921E001C020E00097A1F473
S11305C080E30E94B70226C06AE070E00E94240320
S11305D0E1E0F0E0EC0FFD1FE10FF11D805D808391
S11305E0862F972F1F5F01C010E01816190664F3B9
S11305F0222371F08DE20E94B7020AC01150E1E09B
S1130600F0E0EC0FFD1FE10FF11D80810E94B702A5
S11306101111F4CF27960FB6F894DEBF0FBECDBFED
S1130620DF91CF911F910895DB018F939F930E94D7
S11306305703BF91AF91A29F800D911DA39F900D71
S1130640B29F900D1124089597FB072E16F4009481
S113065007D077FD09D00E94620307FC05D03EF461
S1130660909581959F4F0895709561957F4F08955A
S1130670052E97FB1EF400940E944F0357FD07D0EC
S11306800E94760307FC03D04EF40C944F0350955C
S11306904095309521953F4F4F4F5F4F089590956A
S11306A08095709561957F4F8F4F9F4F08950E945D
S11306B09803A59F900DB49F900DA49F800D911D4C
S11306C011240895AA1BBB1B51E107C0AA1FBB1F1D
S11306D0A617B70710F0A61BB70B881F991F5A95CA
S11306E0A9F780959095BC01CD010895A1E21A2E39
S11306F0AA1BBB1BFD010DC0AA1FBB1FEE1FFF1FC2
S1130700A217B307E407F50720F0A21BB30BE40B11
S1130710F50B661F771F881F991F1A9469F7609558
S11307207095809590959B01AC01BD01CF01089512
S1130730A29FB001B39FC001A39F700D811D11241E
S1130740911DB29F700D811D1124911D0895F8947F
S1050750FFCFD5
S11307525065726966657269636F2031202D20527B
S11307626965676F206C6973746F0D0A004D6F645D
S11307726F204155544F4D415449434F0D0A004D8A
S11307826F646F204D414E55414C202D20426F6DB8
S1130792626120454E43454E444944410D0A004D91
S11307A26F646F204D414E55414C202D20426F6D98
S11307B2626120415041474144410D0A0043727530
S11307C2646F3A2000207C2048756D656461643A48
S11307D22000250D0A003E3E20426F6D62612045D5
S11307E24E43454E444944410D0A003E3E20426F69
S11107F26D626120415041474144410D0A00AF
S9030000FC
