:100000000C9434000C9451000C9451000C94510049
:100010000C9451000C9451000C9451000C9451001C
:100020000C9451000C9451000C9451000C9451000C
:100030000C9451000C9451000C94BD010C9451008F
:100040000C9451000C9451000C9451000C945100EC
:100050000C9451000C9451000C9451000C945100DC
:100060000C940E020C94510011241FBECFEFD8E067
:10007000DEBFCDBF11E0A0E0B1E0E4EAF6E002C0EF
:1000800005900D92AE35B107D9F721E0AEE5B1E0AC
:1000900001C01D92A836B207E1F70E947E000C94C1
:1000A00050030C94000080E480937C0087E88093E8
:1000B0007A000895ECE7F0E09081907F8F70892BB3
:1000C0008083EAE7F0E080818064808380917A0019
:1000D00086FDFCCF809178009091790008958AB1D7
:1000E00080618AB98BB18F7E8BB908958BB18061A5
:1000F0008BB908958BB18F7E8BB90895CF93DF9321
:1001000000D000D000D0CDB7DEB70E9453000E94CF
:100110001E010E946F000E9454020E94B40188E0F8
:100120000E94ED01789480E091E00E9467020E94B5
:10013000E2014B015C011B821C821D821E82412C4C
:10014000512C320110E00E94E2016B017C01DC01C4
:10015000CB0188199909AA09BB09883E9340A105DA
:10016000B10508F43FC00E947A015C010E947E0143
:100170004C018DE191E00E946702C5010E9474026A
:1001800085E291E00E946702C4010E94740282E34A
:1001900091E00E946702111118C088E2881691044C
:1001A000A4F48B819C81AD81BE81C816D906EA0674
:1001B000FB0658F00E9425010E94760086E391E03C
:1001C0000E9467022601370111E0898281E0113027
:1001D00009F080E08A8362E0CE0101960E94F4017A
:1001E00046015701113009F0AECFD701C60184197D
:1001F0009509A609B70988389341A105B10508F406
:10020000A2CF0E9429010E947A00D701C601805F17
:10021000984DAF4FBF4F8B839C83AD83BE838BE4E0
:1002200091E00E9467020E947E0189831A8262E047
:10023000CE0101960E94F40110E085CF8AB1806260
:100240008AB98BB18F7D8BB908958BB18F7D8BB9B6
:1002500008958BB180628BB908954F925F926F922F
:100260007F92AF92BF92CF92DF92EF92FF920F9365
:100270001F93CF93DF93CDB7DEB729013A019B01DE
:10028000AC01241935094609570989899A89AB892E
:10029000BC89BC01CD016A197B098C099D090E94AA
:1002A000BD02A801970124193509460957090E9482
:1002B000E102C601B501620F731F841F951FDF9114
:1002C000CF911F910F91FF90EF90DF90CF90BF9053
:1002D000AF907F906F905F904F900895861797072B
:1002E00034F0481759072CF4842F952F0895862F42
:1002F000972F089580E00E945A000895AF92BF9210
:10030000CF92DF92EF92FF920F931F930E947A0198
:10031000BC0180E090E01F921F921F9224E62F9371
:10032000A12CB12C65011CE2E12EFF24F39400E026
:1003300010E02EE432E040E050E00E942D010F90EA
:100340000F900F900F90DC01CB0144E650E060E08D
:1003500070E00E946E011F910F91FF90EF90DF906F
:10036000CF90BF90AF90089582E084BD93E095BD9B
:1003700099EF97BD80936E0008951F920F920FB66C
:100380000F9211248F939F93AF93BF9380915E013F
:1003900090915F01A0916001B09161010196A11D52
:1003A000B11D80935E0190935F01A0936001B093B3
:1003B0006101BF91AF919F918F910F900FBE0F90F0
:1003C0001F901895F89460915E0170915F01809183
:1003D00060019091610178940895880F8093BA002C
:1003E00085E48093BC000895DC01653008F064E08A
:1003F000F89490E00BC0292F30E0FD01E20FF31FCD
:100400004081F901EC59FE4F40839F5F961798F3A6
:100410006093630110926201789408951F920F9285
:100420000FB60F9211248F939F93EF93FF938091B8
:10043000B900887F883B49F018F4883A31F028C029
:10044000803C01F1883CF1F023C0909162018091E1
:100450006301981780F4E091620181E08E0F809330
:100460006201F0E0EC59FE4F80818093BB0085EC87
:100470008093BC0010C08FEF8093BB0085E8809311
:10048000BC0009C01092620185EC8093BC0003C0DF
:1004900085EC8093BC00FF91EF919F918F910F901D
:1004A0000FBE0F901F9018951092C50087E680939D
:1004B000C40088E08093C10086E08093C200089564
:1004C0009091C00095FFFCCF8093C6000895CF9314
:1004D000DF93EC0103C021960E94600288818111A4
:1004E000FACFDF91CF9108951F93CF93DF93CDB7CC
:1004F000DEB727970FB6F894DEBF0FBECDBF9923A6
:100500002CF491958195910921E001C020E000979C
:10051000A1F480E30E94600226C06AE070E00E94BD
:10052000CD02E1E0F0E0EC0FFD1FE10FF11D805D79
:100530008083862F972F1F5F01C010E018161906C1
:1005400064F3222371F08DE20E9460020AC0115010
:10055000E1E0F0E0EC0FFD1FE10FF11D80810E9452
:1005600060021111F4CF27960FB6F894DEBF0FBECC
:10057000CDBFDF91CF911F910895DB018F939F93A2
:100580000E940003BF91AF91A29F800D911DA39F78
:10059000900DB29F900D1124089597FB072E16F42D
:1005A000009407D077FD09D00E940B0307FC05D00B
:1005B0003EF4909581959F4F0895709561957F4F7A
:1005C0000895052E97FB1EF400940E94F80257FD33
:1005D00007D00E941F0307FC03D04EF40C94F802CE
:1005E00050954095309521953F4F4F4F5F4F08955F
:1005F00090958095709561957F4F8F4F9F4F08958F
:100600000E944103A59F900DB49F900DA49F800D63
:10061000911D11240895AA1BBB1B51E107C0AA1FFD
:10062000BB1FA617B70710F0A61BB70B881F991F93
:100630005A95A9F780959095BC01CD010895A1E246
:100640001A2EAA1BBB1BFD010DC0AA1FBB1FEE1F4C
:10065000FF1FA217B307E407F50720F0A21BB30B97
:10066000E40BF50B661F771F881F991F1A9469F713
:1006700060957095809590959B01AC01BD01CF016F
:100680000895A29FB001B39FC001A39F700D811D6B
:100690001124911DB29F700D811D1124911D08958B
:0406A000F894FFCFFC
:1006A4005065726966657269636F2031202D20522E
:1006B4006965676F206C6973746F0D0A0043727506
:1006C400646F3A2000207C2048756D656461643A4B
:1006D4002000250D0A003E3E20426F6D62612045D8
:1006E4004E43454E444944410D0A003E3E20426F6C
:0E06F4006D626120415041474144410D0A00B2
:00000001FF
