:100000000C9434000C9451000C9451000C94510049
:100010000C9451000C9451000C9451000C9451001C
:100020000C9451000C9451000C9451000C9451000C
:100030000C9451000C9451000C9447020C94510004
:100040000C9451000C9451000C9451000C945100EC
:100050000C9451000C9451000C9451000C945100DC
:100060000C94A0020C94510011241FBECFEFD8E0D5
:10007000DEBFCDBF11E0A0E0B1E0E2E1F7E002C0F9
:1000800005900D92A83CB107D9F721E0A8ECB1E0AA
:1000900001C01D92A13EB207E1F70E9490000C94AE
:1000A00087030C94000080E480937C0087E88093B1
:1000B0007A000895ECE7F0E09081907F8F70892BB3
:1000C0008083EAE7F0E080818064808380917A0019
:1000D00086FDFCCF8091780090917900089580E0B2
:1000E0000E945A000895611106C021E0C39708F4E8
:1000F00020E0822F089521E0459708F420E0822F28
:1001000008958AB180648AB98BB18F7B8BB90895C9
:100110008BB180648BB908958BB18F7B8BB90895B7
:10012000CF93DF9300D01F92CDB7DEB70E9453006C
:100130000E9481000E9491010E94F6020E943E02EC
:1001400089E00E947702789480E091E00E940903A0
:100150000E946C024B015C0100E010E00E946C0206
:100160006B017C010E9498028823B9F10E949B02D6
:10017000823081F4002389F160E070E0CB010E94BD
:1001800097010E948C008EE191E00E94090300E03B
:1001900010E023C0823008F511E0813009F010E052
:1001A000813071F468EB7BE080E090E00E94970181
:1001B0000E94880080E391E00E94090301E00DC0E5
:1001C00060E070E0CB010E9497010E948C0080E506
:1001D00091E00E94090301E010E0D701C6018819EF
:1001E0009909AA09BB09883E9340A105B10508F405
:1001F00049C00E946F00B82EA92E83E791E00E94AB
:1002000009038B2D9A2D0E94160301112DC0612F19
:100210008B2D9A2D0E947300882381F011110EC03E
:1002200068EB7BE080E090E00E9497010E948800EC
:1002300089E791E00E94090311E01AC081110FC003
:10024000112369F060E070E0CB010E9497010E94E9
:100250008C008FE891E00E94090310E009C08DE452
:1002600091E00E94090304C08DE491E00E9409031B
:10027000A982BA821B8363E0CE0101960E947E02AE
:1002800046015701C701B6010E94A00167CF90E067
:10029000FC01EE0FFF1FEE0FFF1FE855FE4F208100
:1002A000222321F02BB124602BB903C02BB12B7F6B
:1002B0002BB9FC01EE0FFF1FEE0FFF1FE855FE4F9D
:1002C0002181222321F02BB128602BB903C02BB14F
:1002D000277F2BB9FC01EE0FFF1FEE0FFF1FE85524
:1002E000FE4F2281222321F02BB120612BB903C0C4
:1002F0002BB12F7E2BB9880F991F880F991FFC01F6
:10030000E855FE4F8381882321F08BB180628BB941
:1003100008958BB18F7D8BB908958BB1837C8BB998
:1003200008958AB18C638AB90E948D010895609303
:10033000CC017093CD018093CE019093CF010895AD
:100340004F925F926F927F928F929F92AF92BF92E5
:10035000CF92DF92EF92FF920F931F938090D00184
:100360009090D101A090D201B090D3010091CC0126
:100370001091CD012091CE013091CF0180169106D0
:10038000A206B30609F46BC0C090C801D090C901A1
:10039000E090CA01F090CB012B013C014C185D08A4
:1003A0006E087F0842E0441651046104710408F4A9
:1003B00056C06093C8017093C9018093CA0190939D
:1003C000CB0180169106A206B306BCF42091D4019D
:1003D0002F5F2093D401283014F01092D401D5015E
:1003E000C4010196A11DB11D8093D0019093D1014C
:1003F000A093D201B093D30117C02091D401215012
:100400002093D40122231CF427E02093D401D501AA
:10041000C4010197A109B1098093D0019093D10142
:10042000A093D201B093D3018091D4010E944701DF
:100430004091D0015091D1016091D2017091D301CE
:100440008091CC019091CD01A091CE01B091CF01CE
:10045000481759076A077B0711F40E948D011F9105
:100460000F91FF90EF90DF90CF90BF90AF909F9053
:100470008F907F906F905F904F90089582E084BD41
:1004800093E095BD99EF97BD80936E0008951F92FC
:100490000F920FB60F9211248F939F93AF93BF9338
:1004A0008091D5019091D601A091D701B091D8014A
:1004B0000196A11DB11D8093D5019093D601A09303
:1004C000D701B093D801BF91AF919F918F910F90B9
:1004D0000FBE0F901F901895F8946091D501709100
:1004E000D6018091D7019091D80178940895880F12
:1004F0008093BA0085E48093BC000895DC016530E8
:1005000008F064E0F89490E00BC0292F30E0FD0182
:10051000E20FF31F4081F901E352FE4F40839F5FDA
:10052000961798F36093DC011092DB01789408959C
:100530008091D90108951092D9018091DA0108952E
:100540001F920F920FB60F9211248F939F93EF93E8
:10055000FF938091B900887F883A61F028F4803851
:1005600061F1883851F134C0803C09F1883CF9F0E0
:10057000883B71F59091DB018091DC01981780F444
:10058000E091DB0181E08E0F8093DB01F0E0E3522C
:10059000FE4F80818093BB0085EC8093BC001DC022
:1005A0008FEF8093BB0085E88093BC0016C010924B
:1005B000DB0185EC8093BC0010C08091BB00809370
:1005C000DA0181E08093D90185EC8093BC0005C0FD
:1005D0001092DB0185EC8093BC00FF91EF919F911D
:1005E0008F910F900FBE0F901F9018951092C5001D
:1005F00087E68093C40088E08093C10086E0809302
:10060000C20008959091C00095FFFCCF8093C60072
:100610000895CF93DF93EC0103C021960E9402035B
:1006200088818111FACFDF91CF9108951F93CF93E5
:10063000DF93CDB7DEB727970FB6F894DEBF0FBEB6
:10064000CDBF99232CF491958195910921E001C0AA
:1006500020E00097A1F480E30E94020326C06AE034
:1006600070E00E945F03E1E0F0E0EC0FFD1FE10F9E
:10067000F11D805D8083862F972F1F5F01C010E0E2
:100680001816190664F3222371F08DE20E9402030A
:100690000AC01150E1E0F0E0EC0FFD1FE10FF11D89
:1006A00080810E9402031111F4CF27960FB6F894AF
:1006B000DEBF0FBECDBFDF91CF911F91089597FB95
:1006C000072E16F4009407D077FD09D00E9473031B
:1006D00007FC05D03EF4909581959F4F0895709545
:1006E00061957F4F0895AA1BBB1B51E107C0AA1F4C
:1006F000BB1FA617B70710F0A61BB70B881F991FC3
:100700005A95A9F780959095BC01CD010895F8946C
:02071000FFCF19
:100712005065726966657269636F2032202D2053BD
:100722006F6D627261206C6973746F0D0A004D6F98
:10073200646F204155544F4D415449434F0D0A00B7
:100742004D6F646F204D414E55414C202D20536F0B
:100752006D6272612041435449564144410D0A0081
:100762004D6F646F204D414E55414C202D20536FEB
:100772006D6272612044455341435449564144419C
:100782000D0A004C44523A2000202D3E20536F6D3A
:100792006272612041435449564144410D0A00208E
:1007A2002D3E20536F6D6272612044455341435484
:1007B20049564144410D0A000100000001010000B8
:1007C2000001000000010100000001000000010121
:0807D20000000001010000011C
:00000001FF
