:100000000C9434000C9451000C9451000C94510049
:100010000C9451000C9451000C9451000C9451001C
:100020000C9451000C9451000C9451000C948204D7
:100030000C948D040C9451000C94A1040C94510068
:100040000C9451000C9451000C947B050C945100BD
:100050000C9451000C9451000C9451000C945100DC
:100060000C9451000C94510011241FBECFEFD8E026
:10007000DEBFCDBF12E0A0E0B1E0E4EFF1E102C0ED
:1000800005900D92A63BB107D9F722E0A6EBB2E0AE
:1000900001C01D92AC3DB207E1F70E9458020C94DA
:1000A000F8080C94000068E270E080E090E00E94A4
:1000B000D1040E94FE0480E70E940E0581EE0E949A
:1000C0000E0588E00E940E0580E00E940E050E9449
:1000D00006056AE070E080E090E00E94D10481E0D3
:1000E0000895AF92BF92CF92DF92EF92FF920F935B
:1000F0001F93CF93DF93EC018B010E94FE0480E7F6
:100100000E940E058CEA0E940E0583E30E940E05F4
:1001100080E00E940E050E94060560E570E080E028
:1001200090E00E94D1040E94FE0481E70E940E0527
:100130000E941B05A82E0E941B05B82E0E941B05BD
:10014000C82E0E941B05E82E0E941B05D82E0E9477
:100150002505F82E0E940605A7FC59C08B2D90E0BE
:10016000A0E0B0E0AC01BD018CE0440F551F661F5C
:10017000771F8A95D1F78C2D90E0A0E0B0E024E0C5
:10018000880F991FAA1FBB1F2A95D1F7842B952B87
:10019000A62BB72B2E2D22952F70BC01CD01622BE3
:1001A0000E943F0720E030E040E855E30E94F60758
:1001B00020E030E048EC52E40E94F607F80160834A
:1001C0007183828393832E2D2F708F2D90E0A0E07A
:1001D000B0E09D29BC01CD01822B0E943F0720E0A9
:1001E00030E040E855E30E94F60720E030E048E4C4
:1001F00053E40E94F60720E030E048E452E40E9415
:100200009706688379838A839B8381E001C080E0BD
:10021000DF91CF911F910F91FF90EF90DF90CF90E2
:10022000BF90AF90089580FF02C02A9A01C02A981B
:1002300081FF02C02B9A01C02B9882FF02C02C9A2A
:1002400001C02C9883FF02C02D9A01C02D98299AD5
:1002500085E08A95F1F7299880E991E00197F1F717
:100260000895CF93C82F662311F0289A01C02898CB
:100270008C2F82958F700E9413018C2F8F700E949B
:10028000130188EC90E00197F1F7CF910895CF9397
:10029000C82F60E00E943101C150C23020F480E4D8
:1002A0009FE10197F1F7CF91089584B18F6384B9ED
:1002B00085B1807C85B980E991E020E931E0F901E0
:1002C0003197F1F70197D9F783E00E94130180E29B
:1002D0009EE40197F1F783E00E94130188E592E024
:1002E0000197F1F783E00E94130182E00E9413015D
:1002F00088E20E9447018CE00E94470186E00E944C
:10030000470181E00C94470181E00C944701882368
:1003100011F080E401C080E0860F80680C944701F2
:10032000CF93DF93EC018991882321F061E00E9453
:100330003101F9CFDF91CF9108950F931F93CF93A0
:10034000DF93D62FC72F60E00E9487010D2F1C2F4F
:10035000C0E0F80181918F01882339F0C03169F044
:1003600061E00E943101CF5FF4CFC03131F061E034
:1003700080E20E943101CF5FF8CFDF91CF911F91D2
:100380000F910895559A5D9808955D9A08955D9826
:10039000089594EA9093BC0020E030E09091BC0076
:1003A00097FD07C02F5F3F4F213197E23907B1F723
:1003B0002FC09091B900987F983009F040C0880F05
:1003C0008093BB0084E88093BC0080E090E02091A3
:1003D000BC0027FD06C001968131E7E29E07B9F710
:1003E00017C08091B900887F883111F084E913C06B
:1003F0006093BB0084E88093BC0080E090E0209193
:10040000BC0027FD0BC001968131F7E29F07B9F7C9
:100410001092BC0084E08093BC0011C09091B900A0
:10042000987F81E0983209F080E094E99093BC00D5
:10043000EFE9FFE03197F1F700C00000089580E098
:100440000895CF93882349F081E0611101C080E0D5
:10045000C1E0411104C0C0E002C082E0C2E0682FE8
:1004600088E00E94C9018FE39CE90197F1F700C081
:1004700000006C2F89E0CF910C94C901CF92DF92DC
:10048000EF92FF920E94C6046B017C010E94C60499
:10049000DC01CB018C199D09AE09BF098C3D95404B
:1004A000A105B10598F3FF90EF90DF90CF900895EC
:1004B000CF93DF93CDB7DEB7E5970FB6F894DEBFE5
:1004C0000FBECDBF0E946F050E94F5040E949804E4
:1004D0000E9470040E94C2010E944F040E945501B4
:1004E000789460E080E00E94870180E091E00E94C3
:1004F000900160E081E00E9487018CE091E00E9421
:1005000090010E943E020E94840160E080E00E940F
:10051000870186E191E00E9490010E943E020E94C4
:10052000840160E080E00E9487018FE191E00E94F9
:1005300090010E943E020E94840160E080E00E94DF
:10054000870180E091E00E94900186E291E00E94A4
:10055000D9050E9453000E94C6041B012C01A12C46
:10056000C12CB12C00E010E00E94B105882309F4F1
:100570005CC060E2CE0101960E94B4056BE371E0BD
:10058000CE0101960E94B308892BD1F167E471E096
:10059000CE0101960E94B308892BA1F161E571E0BB
:1005A000CE0101960E94B308892B71F16AE571E0D2
:1005B000CE0101960E94B308892B49F164E671E0EF
:1005C000CE0101960E94B308892B19F16EE671E005
:1005D000CE0101960E94B308892BF1F069E771E022
:1005E000CE0101960E94B308892BC1F061E871E049
:1005F000CE0101960E94B308892B91F4A12C10C062
:1006000001E00EC000E00CC0BB24B39409C0B12CC3
:1006100007C0CC24C39404C0C12C02C0AA24A39454
:100620004C2D6B2D802F0E9421020E94C604DC01FC
:10063000CB0182199309A409B509803D9740A10512
:10064000B10508F491CF0E94C6041B012C011CA621
:100650001DA61EA61FA618A619A61AA61BA6BE0191
:10066000685D7F4FCE018C960E947100782E42E02B
:10067000BE016D5C7F4F88E00E942F05882EDBA8AD
:100680008CA98DAB43E0BE01605D7F4F89E00E9485
:100690002F05982EE8A8F9A8FE24EF24FE246AA8C6
:1006A0008AE891E00E94D905772051F06CA57DA5DC
:1006B0008EA59FA541E00E942D0681E991E002C030
:1006C00084E991E00E94D9058AE991E00E94D90568
:1006D000882039F08D2D90E00E94E5058CEA91E0AC
:1006E00002C08EEA91E00E94D9058CEB91E00E9455
:1006F000D905992021F0C7010E94E50504C08EEAC2
:1007000091E00E94D90584E392E00E94D9058820F7
:1007100039F02DA9222321F084EC91E00E94D90523
:10072000992031F0662021F086EE91E00E94D905F3
:100730000023D9F0AA2061F011114CC088E70E9473
:1007400056040E94C5010E9452048DE092E026C02A
:10075000112309F440C08AE00E9456040E94C70198
:100760000E94540487E392E031C07720A1F1111177
:1007700018C020E030E040EF51E46CA57DA58EA5C7
:100780009FA50E94F107181634F588E70E945604C9
:100790000E94C5010E94520484E692E00E94D9059D
:1007A00019C020E030E040EE51E46CA57DA58EA597
:1007B0009FA50E94040787FF0DC08AE00E9456048F
:1007C0000E94C7010E94540485E892E00E94D90566
:1007D00010E001C011E04C2D6B2D802F0E942102F2
:1007E00069EA72E0CE0101960E94BC08772041F0D0
:1007F0006CA57DA58EA59FA50E940907CB0102C00F
:1008000080E090E04AE0BE016F5D7F4F0E94C30828
:10081000BE016F5D7F4FCE0101960E94A8086CEA71
:1008200072E0CE0101960E94A8086EEA72E0CE0145
:1008300001960E94A808882019F08D2D90E002C032
:1008400080E090E04AE0BE016F5D7F4F0E94C308E8
:10085000BE016F5D7F4FCE0101960E94A80862EB3A
:1008600072E0CE0101960E94A808992011F0C701FC
:1008700002C080E090E04AE0BE016F5D7F4F0E94C1
:10088000C308BE016F5D7F4FCE0101960E94A8088C
:10089000BE016F5F7F4F81E00E949D0165CE389A57
:1008A000409A089540980895409A0895853B08F02D
:1008B00084EB282F30E0A4EAB6E00E94990824EBEC
:1008C00030E040E050E00E947708205E3C4F220F6D
:1008D000331FF89430938B0020938A007894089506
:1008E000549A109280008AE0809381008FE39CE903
:1008F000909389008093880086E080936F008AE05F
:100900000C9456041F920F920FB60F9211245C9A0A
:100910000F900FBE0F901F9018951F920F920FB659
:100920000F9211245C980F900FBE0F901F90189596
:1009300082E084BD93E095BD99EF97BD80936E00F2
:1009400008951F920F920FB60F9211248F939F93C9
:10095000AF93BF938091B6029091B702A091B80275
:10096000B091B9020196A11DB11D8093B60290937A
:10097000B702A093B802B093B902BF91AF919F9113
:100980008F910F900FBE0F901F901895F894609163
:10099000B6027091B7028091B8029091B902789432
:1009A00008958F929F92AF92BF92CF92DF92EF9273
:1009B000FF926B017C010E94C6044B015C010E9406
:1009C000C604DC01CB0188199909AA09BB098C1559
:1009D0009D05AE05BF0598F3FF90EF90DF90CF9097
:1009E000BF90AF909F908F900895E9EBF0E08081E9
:1009F0008C7F808388E48093B800089584EA809394
:100A0000BC008091BC0087FFFCCF089584E98093EF
:100A1000BC008091BC0084FDFCCF08958093BB0096
:100A200084E88093BC008091BC0087FFFCCF80915C
:100A3000B900887F089584EC8093BC008091BC004D
:100A400087FFFCCF8091BB00089584E88093BC00B1
:100A50008091BC0087FFFCCF8091BB000895CF92AE
:100A6000DF92EF92FF920F931F93CF93DF93C82FE4
:100A7000F62E172F042F0E94FE048C2F880F816002
:100A80000E940E05803451F4CF2DD12F10E0E12CBF
:100A9000F12C680181E0C81AD1080EC00E94060539
:100AA00080E014C0CE14DF0459F40E942505888329
:100AB0008FEFE81AF80A2196E016F10699F703C0BD
:100AC0000E941B05F4CF0E94060581E0DF91CF91C3
:100AD0001F910F91FF90EF90DF90CF9008951092AB
:100AE000C50087E68093C40088E98093C10086E052
:100AF0008093C20008951F920F920FB60F92112497
:100B00008F939F93EF93FF938091C6009091BA02C9
:100B100091111EC08A3061F4E091BB02F0E0E45410
:100B2000FD4F108281E08093BA021092BB0210C088
:100B30008D3071F09091BB029F3150F4E091BB0277
:100B400091E09E0F9093BB02F0E0E454FD4F808350
:100B5000FF91EF919F918F910F900FBE0F901F907B
:100B600018958091BA020895AC0190E070E0615050
:100B70007109292F30E0F901E454FD4F8081811182
:100B800007C0FA01E20FF31F10821092BA02089513
:100B900026173707B4F78081FA01E20FF31F80832D
:100BA0009F5FE7CF9091C00095FFFCCF8093C60078
:100BB0000895CF93DF93EC018991882319F00E9467
:100BC000D205FACFDF91CF910895EF92FF921F9354
:100BD000CF93DF9300D000D000D0CDB7DEB7009721
:100BE00071F480E326960FB6F894DEBF0FBECDBF3A
:100BF000DF91CF911F91FF90EF900C94D20520E0F0
:100C00003AE0E32EF12C11E0120FE1E0F0E0EC0FFE
:100C1000FD1FE20FF11DB7010E946308805D808314
:100C2000CB01212F009779F7112359F01150E1E002
:100C3000F0E0EC0FFD1FE10FF11D80810E94D20555
:100C4000F3CF26960FB6F894DEBF0FBECDBFDF916F
:100C5000CF911F91FF90EF9008954F925F926F9206
:100C60007F928F929F92AF92BF92CF92DF92EF923C
:100C7000FF92CF93DF936B017C01D42F20E030E013
:100C8000A9010E94040787FF07C08DE20E94D205D8
:100C9000F7FAF094F7F8F094C701B6010E94100734
:100CA0002B013C0180E090E00E943F079B01AC01DA
:100CB000C701B6010E9497064B015C01C2010E9468
:100CC000E5058EE20E94D205F12CFD1609F120E027
:100CD00030E040E251E4C501B4010E94F6074B0147
:100CE0005C010E941007C62F80E38C0F0E94D20582
:100CF0006C2F70E080E090E00E9441079B01AC0106
:100D0000C501B4010E9497064B015C01F394DDCF4D
:100D1000DF91CF91FF90EF90DF90CF90BF90AF9099
:100D20009F908F907F906F905F904F900895505854
:100D3000BB27AA270E94AF060C94B7070E94A907F9
:100D400038F00E94B00720F039F49F3F19F426F4E0
:100D50000C94A6070EF4E095E7FB0C94A007E92F8E
:100D60000E94C80758F3BA176207730784079507EC
:100D700020F079F4A6F50C94EA070EF4E0950B2E1A
:100D8000BA2FA02D0B01B90190010C01CA01A001DD
:100D90001124FF27591B99F0593F50F4503E68F138
:100DA0001A16F040A22F232F342F4427585FF3CF79
:100DB000469537952795A795F0405395C9F77EF44A
:100DC0001F16BA0B620B730B840BBAF09150A1F093
:100DD000FF0FBB1F661F771F881FC2F70EC0BA0F19
:100DE000621F731F841F48F4879577956795B795A1
:100DF000F7959E3F08F0B0CF9395880F08F099279C
:100E0000EE0F9795879508950E947C0708F481E07E
:100E100008950E9410076894B1110C94EB0708958F
:100E20000E94D00788F09F5798F0B92F9927B751A3
:100E3000B0F0E1F0660F771F881F991F1AF0BA957E
:100E4000C9F714C0B13091F00E94EA07B1E00895EB
:100E50000C94EA07672F782F8827B85F39F0B93FDD
:100E6000CCF3869577956795B395D9F73EF4909531
:100E70008095709561957F4F8F4F9F4F0895E894AF
:100E800009C097FB3EF490958095709561957F4FD2
:100E90008F4F9F4F9923A9F0F92F96E9BB27939580
:100EA000F695879577956795B795F111F8CFFAF490
:100EB000BB0F11F460FF1BC06F5F7F4F8F4F9F4FC1
:100EC00016C0882311F096E911C0772321F09EE81F
:100ED000872F762F05C0662371F096E8862F70E085
:100EE00060E02AF09A95660F771F881FDAF7880F5F
:100EF0009695879597F90895990F0008550FAA0BB5
:100F0000E0E8FEEF16161706E807F907C0F012161C
:100F10001306E407F50798F0621B730B840B950B1F
:100F200039F40A2661F0232B242B252B21F4089574
:100F30000A2609F4A140A6958FEF811D811D089511
:100F400097F99F6780E870E060E008959FEF80EC7C
:100F5000089500240A94161617061806090608951F
:100F600000240A9412161306140605060895092E85
:100F70000394000C11F4882352F0BB0F40F4BF2BF4
:100F800011F460FF04C06F5F7F4F8F4F9F4F089534
:100F900057FD9058440F551F59F05F3F71F047952A
:100FA000880F97FB991F61F09F3F79F0879508950F
:100FB000121613061406551FF2CF4695F1DF08C02E
:100FC000161617061806991FF1CF8695710561054B
:100FD00008940895E894BB2766277727CB0197F9F3
:100FE00008950E947C0708F48FEF08950E94090875
:100FF0000C94B7070E94A90738F00E94B00720F0B0
:10100000952311F00C94A0070C94A60711240C94BE
:10101000EB070E94C80770F3959FC1F3950F50E04E
:10102000551F629FF001729FBB27F00DB11D639F9A
:10103000AA27F00DB11DAA1F649F6627B00DA11D40
:10104000661F829F2227B00DA11D621F739FB00DE6
:10105000A11D621F839FA00D611D221F749F332756
:10106000A00D611D231F849F600D211D822F762FEF
:101070006A2F11249F5750409AF0F1F088234AF0CC
:10108000EE0FFF1FBB1F661F771F881F9150504038
:10109000A9F79E3F510580F00C94A0070C94EB0734
:1010A0005F3FE4F3983ED4F3869577956795B795BF
:1010B000F795E7959F5FC1F7FE2B880F911D9695D9
:1010C000879597F90895AA1BBB1B51E107C0AA1F7A
:1010D000BB1FA617B70710F0A61BB70B881F991FD9
:1010E0005A95A9F780959095BC01CD010895A1E28C
:1010F0001A2EAA1BBB1BFD010DC0AA1FBB1FEE1F92
:10110000FF1FA217B307E407F50720F0A21BB30BDC
:10111000E40BF50B661F771F881F991F1A9469F758
:1011200060957095809590959B01AC01BD01CF01B4
:101130000895A29FB001B39FC001A39F700D811DB0
:101140001124911DB29F700D811D1124911D0895D0
:10115000FB01DC010D900020E9F7119701900D9241
:101160000020E1F70895FB01DC018D9101908019C9
:101170000110D9F3990B0895FB01DC0101900D9248
:101180000020E1F70895BB274A3031F4992322F477
:10119000BDE2909581959F4F0C94CF08BB27FB0132
:1011A0005527AA27880F991FAA1FA41710F0A41B60
:1011B00083955051B9F7A05DAA3308F0A95DA193BA
:1011C000009779F7B111B1931192CB010C94E80813
:1011D000DC01FC01672F71917723E1F7329704C09E
:1011E0007C916D9370836291AE17BF07C8F3089529
:0411F000F894FFCFA1
:1011F400496E7665726E616465726F0044696769F1
:1012040074616C2032004665726E616E646F0043D7
:10121400686963687500496E696369616E646F200B
:1012240041485431302E2E2E0D0A004D4F444F3A72
:101234004D414E55414C004D4F444F3A4155544F4A
:1012440000424F4D42413A4F4E00424F4D42413AC7
:101254004F464600534F4D4252413A4F4E00534F72
:101264004D4252413A4F46460056454E543A4F4E2F
:101274000056454E543A4F46460054656D703A2028
:10128400002043004552524F5200202048756D659E
:10129400646164207375656C6F3A200025005349BE
:1012A4004E205245535055455354410020204C4440
:1012B400523A200020205B415649534F5D20426F33
:1012C4006D626120646520726965676F20414354D3
:1012D4004956410D0A0020205B415649534F5D2079
:1012E4004D616C6C6120646520736F6D6272612066
:1012F400444553504C45474144410D0A0020205B6E
:10130400415649534F5D2056656E74696C6163693B
:101314006F6E20414354495641444120286D616E0B
:1013240075616C290D0A0020205B415649534F5DBD
:101334002056656E74696C6163696F6E2044455311
:10134400414354495641444120286D616E75616C96
:10135400290D0A0020205B415649534F5D205665F4
:101364006E74696C6163696F6E20414354495641E0
:1013740044410D0A0020205B415649534F5D2056DD
:10138400656E74696C6163696F6E204445534143B3
:101394005449564144410D0A00543A00DF002048A4
:0613A4003A00204C3A0063
:00000001FF
