S01B00006D61737465725F4932635F6C63645F756172742E7372656393
S11300000C9434000C9451000C9451000C94510045
S11300100C9451000C9451000C9451000C94510018
S11300200C9451000C9451000C9451000C94510008
S11300300C9451000C9451000C9499010C945100AF
S11300400C9451000C9451000C9451000C945100E8
S11300500C9451000C9451000C9451000C945100D8
S11300600C9451000C94510011241FBECFEFD8E022
S1130070DEBFCDBF11E0A0E0B1E0EEEAF9E002C0DE
S113008005900D92AE34B107D9F721E0AEE4B1E0AA
S113009001C01D92A235B207E1F70E943B010C9406
S11300A0D5040C94000068E270E080E090E00E94C7
S11300B0C9010E94F60180E70E941E0281EE0E949F
S11300C01E0288E00E941E0280E00E941E020E941E
S11300D0FE016AE070E080E090E00E94C90181E0E6
S11300E008954F925F926F927F928F929F92AF92F8
S11300F0BF92CF92DF92EF92FF920F931F93CF9311
S1130100DF93EC018B010E94F60180E70E941E023E
S11301108CEA0E941E0283E30E941E0280E00E9479
S11301201E020E94FE0160E570E080E090E00E9403
S1130130C9010E94F60181E70E941E020E94060284
S1130140A82E0E940602B82E0E940602D82E0E94F3
S11301500602C82E0E940602F82E0E941002E82E03
S11301600E94FE01AA200CF474C08B2D90E0A0E044
S1130170B0E0072E7CE0880F991FAA1FBB1F7A9559
S1130180D1F7702D4D2D50E060E070E0440F551F05
S1130190661F771F440F551F661F771F440F551F97
S11301A0661F771F440F551F661F771F842B952BDF
S11301B0A62BB72B2C2D22952F70BC01CD01622BC1
S11301C02C2D2F70822E912CA12CB12C540199240A
S11301D088244F2C512C612C712C762C652C542C9A
S11301E0442484289528A628B728A50194012E29FB
S11301F069017A010E94A70320E030E040E855E35A
S11302000E94590420E030E048EC52E40E94590472
S1130210F8016083718382839383C701B6010E94CE
S1130220A70320E030E040E855E30E94590420E0B1
S113023030E048E453E40E94590420E030E048E40C
S113024052E40E940603688379838A839B8381E056
S113025001C080E0DF91CF911F910F91FF90EF904B
S1130260DF90CF90BF90AF909F908F907F906F90D2
S11302705F904F900895CF93DF93CDB7DEB7289763
S11302800FB6F894DEBF0FBECDBF0E942A020E94B3
S1130290ED010E949001789480E091E00E943D027B
S11302A00E9453000E94BE016B017C010E94BE01AA
S11302B0DC01CB018C199D09AE09BF09803D974033
S11302C0A105B10598F3BE016F5F7F4FCE0105967E
S11302D00E9471008823D9F085E191E00E943D02DB
S11302E06D817E818F81988541E00E94A2028CE11C
S11302F091E00E943D0269817A818B819C8141E079
S11303000E94A20286E291E00E943D0204C08BE2B8
S113031091E00E943D020E94BE016B017C01C6CFA8
S113032082E084BD93E095BD99EF97BD80936E0004
S113033008951F920F920FB60F9211248F939F93DB
S1130340AF93BF9380914E0190914F01A0915001C2
S1130350B09151010196A11DB11D80934E0190935E
S11303604F01A0935001B0935101BF91AF919F9160
S11303708F910F900FBE0F901F901895F894609175
S11303804E0170914F0180915001909151017894E8
S113039008958F929F92AF92BF92CF92DF92EF9285
S11303A0FF924B015C010E94BE016B017C010E9423
S11303B0BE01DC01CB018C199D09AE09BF0988156A
S11303C09905AA05BB0598F3FF90EF90DF90CF90B5
S11303D0BF90AF909F908F900895E9EBF0E08081FB
S11303E08C7F808388E48093B800089584EA8093A6
S11303F0BC008091BC008823E4F7089584E98093CD
S1130400BC008091BC0084FDFCCF089584EC8093F3
S1130410BC008091BC008823E4F78091BB00089560
S113042084E88093BC008091BC008823E4F7809129
S1130430BB0008958091B900887F08958093BB0024
S113044084E88093BC008091BC008823E4F70E9478
S11304501A0208951092C50087E68093C40088E0CC
S11304608093C10086E08093C20008959091C000FB
S113047095FFFCCF8093C6000895CF93DF93EC01E2
S113048003C021960E94360288818111FACFDF9140
S1130490CF9108951F93CF93DF9300D000D000D065
S11304A0CDB7DEB7AC01892B91F580E30E9436020B
S11304B03FC09A01ADECBCEC0E94C60496958795AA
S11304C096958795969587959C01220F331F880FE3
S11304D0991F880F991F880F991F820F931F9A01E4
S11304E0281B390BC901E1E0F0E0EC0FFD1FE10F1F
S11304F0F11D805D80839A010E94C604AC0156956B
S1130500479556954795569547951F5F01C010E04E
S11305104115510571F60AC01150E1E0F0E0EC0F0D
S1130520FD1FE10FF11D80810E9436021111F4CFED
S113053026960FB6F894DEBF0FBECDBFDF91CF91E4
S11305401F9108958F929F92AF92BF92CF92DF92A4
S1130550EF92FF921F93CF93DF936B017C01142FD3
S113056020E030E0A9010E94730388233CF48DE26B
S11305700E943602F7FAF094F7F8F094C701B60136
S11305800E9478034B015C0180E090E00E94A70385
S11305909B01AC01C701B6010E9406036B017C01FB
S11305A0C4010E944A028EE20E943602D0E020C0BA
S11305B020E030E040E251E4C701B6010E94590452
S11305C06B017C010E947803C62F80E38C0F0E948C
S11305D036026C2F70E080E090E00E94A9039B013A
S11305E0AC01C701B6010E9406036B017C01DF5F09
S11305F0D117F0F2DF91CF911F91FF90EF90DF9030
S1130600CF90BF90AF909F908F9008955058BB2784
S1130610AA270E941E030C941F040E94110438F0A0
S11306200E94180420F039F49F3F19F426F40C9426
S11306300E040EF4E095E7FB0C940804E92F0E94E5
S1130640300458F3BA17620773078407950720F03C
S113065079F4A6F50C9452040EF4E0950B2EBA2FFF
S1130660A02D0B01B90190010C01CA01A0011124B4
S1130670FF27591B99F0593F50F4503E68F11A1660
S1130680F040A22F232F342F4427585FF3CF4695F1
S113069037952795A795F0405395C9F77EF41F1613
S11306A0BA0B620B730B840BBAF09150A1F0FF0FDD
S11306B0BB1F661F771F881FC2F70EC0BA0F621FC9
S11306C0731F841F48F4879577956795B795F795B9
S11306D09E3F08F0B0CF9395880F08F09927EE0F4E
S11306E09795879508950E94E40308F481E008959E
S11306F00E94380488F09F5798F0B92F9927B75172
S1130700B0F0E1F0660F771F881F991F1AF0BA95B1
S1130710C9F714C0B13091F00E945204B1E00895B9
S11307200C945204672F782F8827B85F39F0B93FAB
S1130730CCF3869577956795B395D9F73EF4909564
S11307408095709561957F4F8F4F9F4F0895E894E2
S113075009C097FB3EF490958095709561957F4F05
S11307608F4F9F4F9923A9F0F92F96E9BB279395B3
S1130770F695879577956795B795F111F8CFFAF4C3
S1130780BB0F11F460FF1BC06F5F7F4F8F4F9F4FF4
S113079016C0882311F096E911C0772321F09EE852
S11307A0872F762F05C0662371F096E8862F70E0B8
S11307B060E02AF09A95660F771F881FDAF7880F92
S11307C09695879597F90895990F0008550FAA0BE8
S11307D0E0E8FEEF16161706E807F907C0F0121650
S11307E01306E407F50798F0621B730B840B950B53
S11307F039F40A2661F0232B242B252B21F40895A8
S11308000A2609F4A140A6958FEF811D811D089544
S113081097F99F6780E870E060E008959FEF80ECAF
S1130820089500240A941616170618060906089552
S113083000240A9412161306140605060895092EB8
S11308400394000C11F4882352F0BB0F40F4BF2B27
S113085011F460FF04C06F5F7F4F8F4F9F4F089567
S113086057FD9058440F551F59F05F3F71F047955D
S1130870880F97FB991F61F09F3F79F08795089542
S1130880121613061406551FF2CF4695F1DF08C061
S1130890161617061806991FF1CF8695710561057E
S11308A008940895E894BB2766277727CB0197F926
S11308B008950E946C040C941F040E94110438F0E3
S11308C00E94180420F0952311F00C9408040C9451
S11308D00E0411240C9453040E94300470F3959F69
S11308E0C1F3950F50E0551F629FF001729FBB2723
S11308F0F00DB11D639FAA27F00DB11DAA1F649FBF
S11309006627B00DA11D661F829F2227B00DA11D71
S1130910621F739FB00DA11D621F839FA00D611DF7
S1130920221F749F3327A00D611D231F849F600D18
S1130930211D822F762F6A2F11249F5750409AF041
S1130940F1F088234AF0EE0FFF1FBB1F661F771FCD
S1130950881F91505040A9F79E3F510580F00C9498
S113096008040C9453045F3FE4F3983ED4F3869553
S113097077956795B795F795E7959F5FC1F7FE2B38
S1130980880F911D9695879597F90895A29FB001B8
S1130990B39FC001A39F700D811D1124911DB29FAF
S11109A0700D811D1124911D0895F894FFCF50
S11309AE496E696369616E646F2041485431302E1B
S11309BE2E2E0D0A0054656D703A2000204320201F
S11309CE48756D3A200020250D0A0053656E736F2D
S11309DE72206F63757061646F2C2073652072656D
S11109EE696E74656E74612E2E2E0D0A000063
S9030000FC
