S01B00006D61737465725F4932635F6C63645F756172742E7372656393
S11300000C9434000C9451000C9451000C94510045
S11300100C9451000C9451000C9451000C94510018
S11300200C9451000C9451000C9451000C94220433
S11300300C942D040C9451000C9441040C94510024
S11300400C9451000C9451000C94FF050C94510035
S11300500C9451000C9451000C9451000C945100D8
S11300600C9451000C94510011241FBECFEFD8E022
S1130070DEBFCDBF11E0A0E0B1E0ECEDF0E102C0E5
S113008005900D92A23DB107D9F721E0A2EDB1E0B0
S113009001C01D92AC3FB207E1F70E9438020C94F4
S11300A06C080C94000068E270E080E090E00E942C
S11300B071040E949E0480E70E94AE0481EE0E94B7
S11300C0AE0488E00E94AE0480E00E94AE040E9468
S11300D0A6046AE070E080E090E00E94710481E090
S11300E00895AF92BF92CF92DF92EF92FF920F9357
S11300F01F93CF93DF93EC018B010E949E0480E752
S11301000E94AE048CEA0E94AE0483E30E94AE0413
S113011080E00E94AE040E94A60460E570E080E0E6
S113012090E00E9471040E949E0481E70E94AE0444
S11301300E94BB04A82E0E94BB04B82E0E94BB04DC
S1130140C82E0E94BB04E82E0E94BB04D82E0E9435
S1130150C504F82E0E94A604A7FC59C08B2D90E07C
S1130160A0E0B0E0AC01BD018CE0440F551F661F58
S1130170771F8A95D1F78C2D90E0A0E0B0E024E0C1
S1130180880F991FAA1FBB1F2A95D1F7842B952B83
S1130190A62BB72B2E2D22952F70BC01CD01622BDF
S11301A00E94E10620E030E040E855E30E94980711
S11301B020E030E048EC52E40E949807F8016083A4
S11301C07183828393832E2D2F708F2D90E0A0E076
S11301D0B0E09D29BC01CD01822B0E94E10620E004
S11301E030E040E855E30E94980720E030E048E41E
S11301F053E40E94980720E030E048E452E40E946F
S11302003906688379838A839B8381E001C080E017
S1130210DF91CF911F910F91FF90EF90DF90CF90DE
S1130220BF90AF90089580FF02C02A9A01C02A9817
S113023081FF02C02B9A01C02B9882FF02C02C9A26
S113024001C02C9883FF02C02D9A01C02D98299AD1
S113025085E08A95F1F7000029988FE891E00197ED
S1130260F1F700C000000895CF93C82F662311F062
S1130270289A01C028988C2F82958F700E941301B0
S11302808C2F8F70CF910C94130160E00C94340187
S113029084B18F6384B92FEF80E792E021508040CE
S11302A09040E1F700C0000083E00E9413018FE159
S11302B09EE40197F1F700C0000083E00E9413015F
S11302C087E592E00197F1F700C0000083E00E9407
S11302D0130187E592E00197F1F700C0000082E086
S11302E00E94130188E20E94450188E00E944501B2
S11302F081E00E9445018FE39FE10197F1F700C07F
S1130300000086E00E9445018CE00C94450181E0E8
S11303100E9445018FE39FE10197F1F700C00000BF
S11303200895811102C080E801C080EC860F0C940E
S11303304501CF93DF93EC018991882321F061E09B
S11303400E943401F9CFDF91CF91089561E00C94BC
S11303503401EF92FF921F93CF93DF93CDB7DEB7B3
S113036027970FB6F894DEBF0FBECDBF97FF05C029
S113037091958195910931E003C0009729F030E00F
S113038020E0EAE0F0E00FC061E080E327960FB6DA
S1130390F894DEBF0FBECDBFDF91CF911F91FF90C8
S11303A0EF900C94340111E0120FEE24E394F12C3D
S11303B0EC0EFD1EE20EF11CBF010E941908805DC7
S11303C0D7018C93CB01212F009769F7332321F0B8
S11303D061E08DE20E943401112351F01150E1E0FB
S11303E0F0E0EC0FFD1FE10FF11D61E08081F2CF21
S11303F027960FB6F894DEBF0FBECDBFDF91CF9125
S11304001F91FF90EF900895CF93DF93D82F60E072
S11304100E949101C0E161E080E20E943401C15078
S1130420D1F760E08D2FDF91CF910C949101559A13
S11304305D9808955D9A08955D980895CF92DF922E
S1130440EF92FF920E9466046B017C010E94660495
S1130450DC01CB018C199D09AE09BF098C3D954087
S1130460A105B10598F3FF90EF90DF90CF90089528
S1130470CF93DF93CDB7DEB72B970FB6F894DEBFDB
S11304800FBECDBF0E9428050E94F9050E94950465
S11304900E9438040E9410040E9417020E94EF0375
S11304A00E944801789460E080E00E94910188E114
S11304B091E00E94990160E081E00E94910184E250
S11304C091E00E9499010E941E020E94870160E04F
S11304D080E00E9491018EE291E00E9499010E94C5
S11304E01E020E94870160E080E00E94910187E380
S11304F091E00E9499010E941E020E9487018EE3EE
S113050091E00E943B050E9453000E9466042B0167
S11305103C01C12CD12CE12C0E943106882309F422
S11305204DC00E9434068C0145E050E063E571E063
S11305300E945E08892B69F481E0F801958191336A
S113054009F080E08093D50189E591E00E943B05A4
S113055035C046E050E066E771E0C8010E945E08DD
S1130560892B49F481E0F8019681913309F080E008
S11305708093D40123C046E050E06DE771E0C801E8
S11305800E945E08892B49F481E0F8019681913339
S113059009F080E08093D30111C047E050E064E8A3
S11305A071E0C8010E945E08892B41F481E0F801E2
S11305B09781913309F080E08093D2010E94660410
S11305C0DC01CB0184199509A609B709803D974040
S11305D0A105B10508F4A0CF0E9466042B013C01DB
S11305E01D821E821F82188619821A821B821C8217
S11305F0BE016F5F7F4FCE0105960E947100982E59
S113060041E0BE01655F7F4F88E00E94CF04A82EC1
S1130610FB8442E0BE01675F7F4F89E00E94CF0404
S1130620B82E09851A851027012710278091D50136
S113063081113DC09920E9F0E1100FC0EE24E3944C
S113064020E030E040EF51E46D817E818F81988518
S11306500E94930718166CF00BC020E030E040EEC7
S113066051E46D817E818F8198850E94A60687FD65
S1130670E12CAA2061F0D11006C0DD24D39427E236
S11306802F1528F403C08CE28F1508F4D12CBB205D
S1130690B1F0C11007C0CC24C3940935E2E01E07B1
S11306A070F40CC00632F2E01F0740F008C0E0907E
S11306B0D301D090D401C090D20101C0C12CEE204E
S11306C041F088E70E94F6030E941A020E94F20396
S11306D007C08AE00E94F6030E941C020E94F403F1
S11306E06D2D88E00E940F056C2D89E00E940F0596
S11306F08CE891E00E943B05992051F06D817E8148
S11307008F81988541E00E948F0583E991E002C0C2
S113071086E991E00E943B058CE991E00E943B054B
S1130720AA2039F08F2D90E00E9447058EEA91E0CF
S113073002C080EB91E00E943B058EEB91E00E94A9
S11307403B05BB2021F0C8010E94470504C080EB93
S113075091E00E943B0580E591E00E943B0580E02A
S11307600E9404028091D501811103C080E091E0D0
S113077002C08BE091E00E94990181E00E94040292
S113078086EC91E00E949901992041F06D817E816F
S11307908F8198850E94AB06CB0102C080E090E077
S11307A00E94A9018FED0E94A60189EC91E00E94AC
S11307B09901AA2019F08F2D90E002C080E090E00A
S11307C00E94A9018DEC91E00E949901BB2011F0D7
S11307D0C80102C080E090E00E94A9019DCE389A31
S11307E0409A089540980895409A0895853B08F0EA
S11307F084EB282F30E0A4EAB6E00E944F0824EBF3
S113080030E040E050E00E942D08205E3C4F220F73
S1130810331FF89430938B0020938A0078940895C2
S1130820549A109280008AE0809381008FE39CE9BF
S1130830909389008093880086E080936F008AE01B
S11308400C94F6031F920F920FB60F9211245C9A28
S11308500F900FBE0F901F9018951F920F920FB616
S11308600F9211245C980F900FBE0F901F90189553
S113087082E084BD93E095BD99EF97BD80936E00AF
S113088008951F920F920FB60F9211248F939F9386
S1130890AF93BF938091D6019091D701A091D801D5
S11308A0B091D9010196A11DB11D8093D6019093F9
S11308B0D701A093D801B093D901BF91AF919F9173
S11308C08F910F900FBE0F901F901895F894609120
S11308D0D6017091D7018091D8019091D901789473
S11308E008958F929F92AF92BF92CF92DF92EF9230
S11308F0FF926B017C010E9466044B015C010E9423
S11309006604DC01CB0188199909AA09BB098C1575
S11309109D05AE05BF0598F3FF90EF90DF90CF9053
S1130920BF90AF909F908F900895E9EBF0E08081A5
S11309308C7F808388E48093B800089584EA809350
S1130940BC008091BC0087FFFCCF089584E98093AC
S1130950BC008091BC0084FDFCCF08958093BB0053
S113096084E88093BC008091BC0087FFFCCF809119
S1130970B900887F089584EC8093BC008091BC000A
S113098087FFFCCF8091BB00089584E88093BC006E
S11309908091BC0087FFFCCF8091BB000895CF926B
S11309A0DF92EF92FF920F931F93CF93DF93C82FA1
S11309B0F62E172F042F0E949E048C2F880F81601F
S11309C00E94AE04803451F4CF2DD12F10E0E12CDD
S11309D0F12C680181E0C81AD1080EC00E94A60457
S11309E080E014C0CE14DF0459F40E94C504888347
S11309F08FEFE81AF80A2196E016F10699F703C07A
S1130A000E94BB04F4CF0E94A60481E0DF91CF9141
S1130A101F910F91FF90EF90DF90CF900895CF93A7
S1130A20DF93D82FC62F0E949E048D2F880F0E941B
S1130A30AE04883121F00E94A60480E006C08C2F09
S1130A400E94AE040E94A60481E0DF91CF91089534
S1130A501092C50087E68093C40088E08093C100AB
S1130A6086E08093C20008959091C00095FFFCCF6A
S1130A708093C6000895CF93DF93EC018991882376
S1130A8019F00E943405FACFDF91CF910895EF92C7
S1130A90FF921F93CF93DF9300D000D000D0CDB747
S1130AA0DEB7009771F480E326960FB6F894DEBFA4
S1130AB00FBECDBFDF91CF911F91FF90EF900C94AB
S1130AC0340520E03AE0E32EF12C11E0120FE1E0CE
S1130AD0F0E0EC0FFD1FE20FF11DB7010E940508C5
S1130AE0805D8083CB01212F009779F7112359F082
S1130AF01150E1E0F0E0EC0FFD1FE10FF11D8081EA
S1130B000E943405F3CF26960FB6F894DEBF0FBECD
S1130B10CDBFDF91CF911F91FF90EF9008954F9239
S1130B205F926F927F928F929F92AF92BF92CF9279
S1130B30DF92EF92FF92CF93DF936B017C01D42F6E
S1130B4020E030E0A9010E94A60687FF07C08DE2DD
S1130B500E943405F7FAF094F7F8F094C701B6014F
S1130B600E94B2062B013C0180E090E00E94E10665
S1130B709B01AC01C701B6010E9439064B015C011F
S1130B80C2010E9447058EE20E943405F12CFD1635
S1130B9009F120E030E040E251E4C501B4010E94D3
S1130BA098074B015C010E94B206C62F80E38C0FAC
S1130BB00E9434056C2F70E080E090E00E94E30610
S1130BC09B01AC01C501B4010E9439064B015C01D3
S1130BD0F394DDCFDF91CF91FF90EF90DF90CF9032
S1130BE0BF90AF909F908F907F906F905F904F9049
S1130BF00895E1ECF0E080818069808308951F927C
S1130C000F920FB60F9211248F939F93EF93FF933C
S1130C108091C6008A3061F4E091DB01F0E0E45297
S1130C20FE4F108281E08093DA011092DB0110C044
S1130C308D3071F09091DB019F3150F4E091DB0134
S1130C4091E09E0F9093DB01F0E0E452FE4F80832D
S1130C50FF91EF919F918F910F900FBE0F901F9076
S1130C6018958091DA0108951092DA018CED91E0E3
S1130C7008955058BB27AA270E9451060C9459077F
S1130C800E944B0738F00E94520720F039F49F3F2E
S1130C9019F426F40C9448070EF4E095E7FB0C9441
S1130CA04207E92F0E946A0758F3BA1762077307CD
S1130CB08407950720F079F4A6F50C948C070EF4BC
S1130CC0E0950B2EBA2FA02D0B01B90190010C0158
S1130CD0CA01A0011124FF27591B99F0593F50F470
S1130CE0503E68F11A16F040A22F232F342F4427C8
S1130CF0585FF3CF469537952795A795F0405395C0
S1130D00C9F77EF41F16BA0B620B730B840BBAF08F
S1130D109150A1F0FF0FBB1F661F771F881FC2F7FA
S1130D200EC0BA0F621F731F841F48F4879577950E
S1130D306795B795F7959E3F08F0B0CF9395880FC8
S1130D4008F09927EE0F9795879508950E941E073E
S1130D5008F481E008950E94B2066894B1110C94DD
S1130D608D0708950E94720788F09F5798F0B92F55
S1130D709927B751B0F0E1F0660F771F881F991FCC
S1130D801AF0BA95C9F714C0B13091F00E948C07DB
S1130D90B1E008950C948C07672F782F8827B85FEB
S1130DA039F0B93FCCF3869577956795B395D9F724
S1130DB03EF490958095709561957F4F8F4F9F4F2E
S1130DC00895E89409C097FB3EF49095809570953A
S1130DD061957F4F8F4F9F4F9923A9F0F92F96E983
S1130DE0BB279395F695879577956795B795F111F8
S1130DF0F8CFFAF4BB0F11F460FF1BC06F5F7F4F95
S1130E008F4F9F4F16C0882311F096E911C07723A6
S1130E1021F09EE8872F762F05C0662371F096E8AF
S1130E20862F70E060E02AF09A95660F771F881F7E
S1130E30DAF7880F9695879597F90895990F000822
S1130E40550FAA0BE0E8FEEF16161706E807F90798
S1130E50C0F012161306E407F50798F0621B730B33
S1130E60840B950B39F40A2661F0232B242B252BB4
S1130E7021F408950A2609F4A140A6958FEF811D57
S1130E80811D089597F99F6780E870E060E00895F8
S1130E909FEF80EC089500240A941616170618068E
S1130EA00906089500240A9412161306140605066A
S1130EB00895092E0394000C11F4882352F0BB0FFB
S1130EC040F4BF2B11F460FF04C06F5F7F4F8F4F5E
S1130ED09F4F089557FD9058440F551F59F05F3F99
S1130EE071F04795880F97FB991F61F09F3F79F048
S1130EF087950895121613061406551FF2CF4695CA
S1130F00F1DF08C0161617061806991FF1CF86954B
S1130F107105610508940895E894BB27662777272F
S1130F20CB0197F908950E941E0708F48FEF0895E6
S1130F300E94AB070C9459070E944B0738F00E949B
S1130F40520720F0952311F00C9442070C944807A3
S1130F5011240C948D070E946A0770F3959FC1F3C6
S1130F60950F50E0551F629FF001729FBB27F00D53
S1130F70B11D639FAA27F00DB11DAA1F649F6627A8
S1130F80B00DA11D661F829F2227B00DA11D621FF7
S1130F90739FB00DA11D621F839FA00D611D221FB1
S1130FA0749F3327A00D611D231F849F600D211D95
S1130FB0822F762F6A2F11249F5750409AF0F1F018
S1130FC088234AF0EE0FFF1FBB1F661F771F881F81
S1130FD091505040A9F79E3F510580F00C94420770
S1130FE00C948D075F3FE4F3983ED4F38695779590
S1130FF06795B795F795E7959F5FC1F7FE2B880F27
S1131000911D9695879597F90895AA1BBB1B51E1ED
S113101007C0AA1FBB1FA617B70710F0A61BB70B64
S1131020881F991F5A95A9F780959095BC01CD0109
S1131030089597FB072E16F4009407D077FD09D086
S11310400E94050807FC05D03EF4909581959F4FBA
S11310500895709561957F4F0895A1E21A2EAA1BF9
S1131060BB1BFD010DC0AA1FBB1FEE1FFF1FA21754
S1131070B307E407F50720F0A21BB30BE40BF50B51
S1131080661F771F881F991F1A9469F760957095DA
S1131090809590959B01AC01BD01CF010895A29F5D
S11310A0B001B39FC001A39F700D811D1124911D38
S11310B0B29F700D811D1124911D0895FB01DC0167
S11310C04150504030F08D910190801919F4002066
S10F10D0B9F7881B990B0895F894FFCF22
S11310DC4D6F646F3A204155544F004D6F646F3A15
S11310EC204D414E55414C00496E7665726E6164DB
S11310FC65726F004469676974616C2032004665DF
S113110C726E616E646F0043686963687500496E42
S113111C696369616E646F2041485431302E2E2E00
S113112C0D0A004D4F444F3A004D6F646F206361BC
S113113C6D626961646F20706F72204164616672C4
S113114C7569740D0A00424F4D42413A00534552A1
S113115C564F3A00534F4D4252413A0054656D700C
S113116C3A20002043004552524F5200202048752B
S113117C6D65646164207375656C6F3A200025009D
S113118C53494E2052455350554553544100202049
S113119C4C44523A2000543A0020483A00204C3A2D
S10511AC00003D
S9030000FC
