S01B00006D61737465725F4932635F6C63645F756172742E7372656393
S11300000C9434000C9451000C9451000C94510045
S11300100C9451000C9451000C9451000C94510018
S11300200C9451000C9451000C9451000C947D02DA
S11300300C948C020C9451000C94A4020C94510066
S11300400C9451000C9451000C9451000C945100E8
S11300500C9451000C9451000C9451000C945100D8
S11300600C9451000C94510011241FBECFEFD8E022
S1130070DEBFCDBF12E0A0E0B1E0E2E8FCE002C0E8
S113008005900D92A436B107D9F722E0A4E6B2E0B8
S113009001C01D92A836B207E1F70E944A010C94F0
S11300A03F060C94000068E270E080E090E00E945B
S11300B0D4020E94010380E70E94290381EE0E947A
S11300C0290388E00E94290380E00E9429030E94FA
S11300D009036AE070E080E090E00E94D40281E0CD
S11300E008954F925F926F927F928F929F92AF92F8
S11300F0BF92CF92DF92EF92FF920F931F93CF9311
S1130100DF93EC018B010E94010380E70E94290325
S11301108CEA0E94290383E30E94290380E00E9461
S113012029030E94090360E570E080E090E00E94EA
S1130130D4020E94010381E70E9429030E94110353
S1130140A82E0E941103B82E0E941103D82E0E94DB
S11301501103C82E0E941103F82E0E941B03E82EDF
S11301600E940903AA200CF474C08B2D90E0A0E037
S1130170B0E0072E7CE0880F991FAA1FBB1F7A9559
S1130180D1F7702D4D2D50E060E070E0440F551F05
S1130190661F771F440F551F661F771F440F551F97
S11301A0661F771F440F551F661F771F842B952BDF
S11301B0A62BB72B2C2D22952F70BC01CD01622BC1
S11301C02C2D2F70822E912CA12CB12C540199240A
S11301D088244F2C512C612C712C762C652C542C9A
S11301E0442484289528A628B728A50194012E29FB
S11301F069017A010E94EA0420E030E040E855E316
S11302000E94A10520E030E048EC52E40E94A105E0
S1130210F8016083718382839383C701B6010E94CE
S1130220EA0420E030E040E855E30E94A10520E024
S113023030E048E453E40E94A10520E030E048E4C3
S113024052E40E944904688379838A839B8381E012
S113025001C080E0DF91CF911F910F91FF90EF904B
S1130260DF90CF90BF90AF909F908F907F906F90D2
S11302705F904F9008958AB180628AB98BB18F7D67
S11302808BB908958BB180628BB908958BB18F7D42
S11302908BB90895CF93DF93CDB7DEB72D970FB603
S11302A0F894DEBF0FBECDBF0E946D030E94F8021A
S11302B00E949B020E9468020E943B010E943F022E
S11302C0789480E091E00E9480030E9453000E9491
S11302D0C9026B017C0110E00E94C902DC01CB0160
S11302E08C199D09AE09BF09803D9740A105B10550
S11302F098F30E94C9026B017C011D821E821F8239
S1130300188619821A821B821C82BE016F5F7F4F7E
S1130310CE0105960E947100082F42E0BE01645F81
S11303207F4F88E00E943503882E6C847D8443E0EF
S1130330BE01675F7F4F89E00E943503982E89854F
S113034090E0982F88272A855C01A22A5B8485E1A6
S113035091E00E948003002361F06D817E818F8192
S1130360988541E00E94E5038CE191E00E948003BE
S113037004C08FE191E00E94800385E291E00E9435
S11303808003882049F0862D90E00E948D0387E346
S113039091E00E94800304C089E391E00E948003FD
S11303A087E491E00E948003992021F0C5010E9416
S11303B08D0304C089E391E00E94800382E191E00F
S11303C00E948003882031F0772021F08FE491E0AF
S11303D00E948003992031F0552021F081E791E0BB
S11303E00E948003811004C088E991E00E94800388
S11303F0911004C084EC91E00E948003011104C0B8
S113040080EF91E00E948003002309F465CF11116D
S113041019C06D817E818F81988520E030E040EFA6
S113042051E40E949C0518166CF488E70E944E0261
S11304300E9442010E9446028FE192E00E948003E2
S113044011E04ACF112309F447CF6D817E818F815A
S1130450988520E030E040EE51E40E94B604882301
S11304600CF03ACF8AE00E944E020E9446010E949C
S11304704A0280E492E00E94800310E02DCF87B10D
S1130480816087B988B1816088B9089588B18E7F09
S113049088B9089588B1816088B90895853B08F0CA
S11304A084EB282F30E0A4EAB6E00E94300624EB67
S11304B030E040E050E00E940E06205E3C4F220FE8
S11304C0331FF89430938B0020938A007894089516
S11304D08AB180618AB9109280008AE08093810099
S11304E08FE39CE9909389008093880086E0809351
S11304F06F008AE00E944E0208951F920F920FB679
S11305000F9211248F938BB180618BB98F910F90CF
S11305100FBE0F901F9018951F920F920FB60F9257
S113052011248F938BB18F7E8BB98F910F900FBE57
S11305300F901F90189582E084BD93E095BD99EFCC
S113054097BD80936E0008951F920F920FB60F927D
S113055011248F939F93AF93BF93809164029091E2
S11305606502A0916602B09167020196A11DB11DBA
S11305708093640290936502A0936602B09367022D
S1130580BF91AF919F918F910F900FBE0F901F90CD
S11305901895F894609164027091650280916602E6
S11305A090916702789408958F929F92AF92BF9230
S11305B0CF92DF92EF92FF924B015C010E94C9023D
S11305C06B017C010E94C902DC01CB018C199D09DD
S11305D0AE09BF0988159905AA05BB0598F3FF90D4
S11305E0EF90DF90CF90BF90AF909F908F90089541
S11305F0E9EBF0E080818C7F808388E48093B8000D
S1130600089584EA8093BC008091BC008823E4F7B9
S1130610089584E98093BC008091BC0084FDFCCFE4
S1130620089584EC8093BC008091BC008823E4F797
S11306308091BB00089584E88093BC008091BC0045
S11306408823E4F78091BB0008958091B900887FE6
S113065008958093BB0084E88093BC008091BC0023
S11306608823E4F70E94250308950F931F93CF93E3
S1130670DF93C82F8B01D42F0E9401038C2F90E0AD
S1130680880F991F81600E9429038034D9F00E9449
S1130690090380E01DC02C2F30E08D2F90E00197DE
S11306A02817390739F40E941B03F801EC0FF11DD8
S11306B0808306C00E941103F801EC0FF11D8083B2
S11306C0CF5F01C0C0E0CD1730F30E94090381E081
S11306D0DF91CF911F910F9108951092C50087E685
S11306E08093C40088E08093C10086E08093C200B8
S11306F008959091C00095FFFCCF8093C6000895A3
S1130700CF93DF93EC0103C021960E947903888183
S11307108111FACFDF91CF9108951F93CF93DF9387
S113072000D000D000D0CDB7DEB7AC01892B91F555
S113073080E30E9479033FC09A01ADECBCEC0E94B7
S113074030069695879596958795969587959C01FD
S1130750220F331F880F991F880F991F880F991F25
S1130760820F931F9A01281B390BC901E1E0F0E0C5
S1130770EC0FFD1FE10FF11D805D80839A010E9443
S11307803006AC015695479556954795569547952D
S11307901F5F01C010E04115510571F60AC01150E8
S11307A0E1E0F0E0EC0FFD1FE10FF11D80810E94FC
S11307B079031111F4CF26960FB6F894DEBF0FBE5D
S11307C0CDBFDF91CF911F9108958F929F92AF92E9
S11307D0BF92CF92DF92EF92FF921F93CF93DF935A
S11307E06B017C01142F20E030E0A9010E94B604C3
S11307F088233CF48DE20E947903F7FAF094F7F829
S1130800F094C701B6010E94BB044B015C0180E077
S113081090E00E94EA049B01AC01C701B6010E946A
S113082049046B017C01C4010E948D038EE20E9485
S11308307903D0E020C020E030E040E251E4C70179
S1130840B6010E94A1056B017C010E94BB04C62F66
S113085080E38C0F0E9479036C2F70E080E090E0BD
S11308600E94EC049B01AC01C701B6010E9449043B
S11308706B017C01DF5FD117F0F2DF91CF911F9103
S1130880FF90EF90DF90CF90BF90AF909F908F90AC
S113089008955058BB27AA270E9461040C9462054E
S11308A00E94540538F00E945B0520F039F49F3F04
S11308B019F426F40C9451050EF4E095E7FB0C941E
S11308C04B05E92F0E94730558F3BA1762077307A3
S11308D08407950720F079F4A6F50C9495050EF499
S11308E0E0950B2EBA2FA02D0B01B90190010C013C
S11308F0CA01A0011124FF27591B99F0593F50F454
S1130900503E68F11A16F040A22F232F342F4427AB
S1130910585FF3CF469537952795A795F0405395A3
S1130920C9F77EF41F16BA0B620B730B840BBAF073
S11309309150A1F0FF0FBB1F661F771F881FC2F7DE
S11309400EC0BA0F621F731F841F48F487957795F2
S11309506795B795F7959E3F08F0B0CF9395880FAC
S113096008F09927EE0F9795879508950E9427051B
S113097008F481E008950E947B0588F09F5798F061
S1130980B92F9927B751B0F0E1F0660F771F881F90
S1130990991F1AF0BA95C9F714C0B13091F00E94AA
S11309A09505B1E008950C949505672F782F882755
S11309B0B85F39F0B93FCCF3869577956795B395D1
S11309C0D9F73EF490958095709561957F4F8F4F40
S11309D09F4F0895E89409C097FB3EF49095809545
S11309E0709561957F4F8F4F9F4F9923A9F0F92FF1
S11309F096E9BB279395F695879577956795B7956F
S1130A00F111F8CFFAF4BB0F11F460FF1BC06F5F54
S1130A107F4F8F4F9F4F16C0882311F096E911C066
S1130A20772321F09EE8872F762F05C0662371F087
S1130A3096E8862F70E060E02AF09A95660F771F9B
S1130A40881FDAF7880F9695879597F90895990F77
S1130A500008550FAA0BE0E8FEEF16161706E80784
S1130A60F907C0F012161306E407F50798F0621BA5
S1130A70730B840B950B39F40A2661F0232B242B7A
S1130A80252B21F408950A2609F4A140A6958FEF99
S1130A90811D811D089597F99F6780E870E060E0EB
S1130AA008959FEF80EC089500240A941616170603
S1130AB018060906089500240A941216130614064B
S1130AC005060895092E0394000C11F4882352F0AE
S1130AD0BB0F40F4BF2B11F460FF04C06F5F7F4F66
S1130AE08F4F9F4F089557FD9058440F551F59F04D
S1130AF05F3F71F04795880F97FB991F61F09F3F07
S1130B0079F087950895121613061406551FF2CF2F
S1130B104695F1DF08C0161617061806991FF1CF7F
S1130B2086957105610508940895E894BB276627A6
S1130B307727CB0197F908950E94270508F48FEFD2
S1130B4008950E94B4050C9462050E94540538F07F
S1130B500E945B0520F0952311F00C944B050C9436
S1130B60510511240C9496050E94730570F3959F0A
S1130B70C1F3950F50E0551F629FF001729FBB2790
S1130B80F00DB11D639FAA27F00DB11DAA1F649F2C
S1130B906627B00DA11D661F829F2227B00DA11DDF
S1130BA0621F739FB00DA11D621F839FA00D611D65
S1130BB0221F749F3327A00D611D231F849F600D86
S1130BC0211D822F762F6A2F11249F5750409AF0AF
S1130BD0F1F088234AF0EE0FFF1FBB1F661F771F3B
S1130BE0881F91505040A9F79E3F510580F00C9406
S1130BF04B050C9496055F3FE4F3983ED4F3869539
S1130C0077956795B795F795E7959F5FC1F7FE2BA5
S1130C10880F911D9695879597F90895A1E21A2E4C
S1130C20AA1BBB1BFD010DC0AA1FBB1FEE1FFF1F8C
S1130C30A217B307E407F50720F0A21BB30BE40BDC
S1130C40F50B661F771F881F991F1A9469F7609523
S1130C507095809590959B01AC01BD01CF010895DD
S1130C60A29FB001B39FC001A39F700D811D1124E9
S1130C70911DB29F700D811D1124911D0895F8944A
S1050C80FFCFA0
S1130C82496E696369616E646F2041485431302E44
S1130C922E2E0D0A0054656D703A20002043004543
S1130CA252524F5200202048756D6564616420736E
S1130CB275656C6F3A2000250053494E2052455306
S1130CC25055455354410020204C44523A200020B0
S1130CD2205B415649534F5D20426F6D626120642F
S1130CE26520726965676F204143544956410D0A74
S1130CF20020205B415649534F5D204D616C6C616D
S1130D0220646520736F6D62726120444553504CB8
S1130D1245474144410D0A0020205B415649534F47
S1130D225D205065726966657269636F206465202F
S1130D32726965676F206E6F20636F6E746573747A
S1130D426F0D0A0020205B415649534F5D205065C8
S1130D52726966657269636F20646520636C696D8C
S1130D6261206E6F20636F6E746573746F0D0A0079
S1130D7220205B415649534F5D2041485431302075
S1130D826E6F20636F6E746573746F206F2073656A
S1130D9267756961206F63757061646F0D0A002065
S1130DA2205B415649534F5D2056656E74696C61F0
S1130DB263696F6E2041435449564144410D0A0010
S1130DC220205B415649534F5D2056656E74696C11
S1130DD26163696F6E20444553414354495641440B
S1070DE2410D0A00B1
S9030000FC
