:100000000C9434000C9451000C9451000C94510049
:100010000C9451000C9451000C9451000C9451001C
:100020000C9451000C9451000C9451000C941E023D
:100030000C942D020C9451000C9445020C94510028
:100040000C9451000C9451000C9451000C945100EC
:100050000C9451000C9451000C9451000C945100DC
:100060000C9451000C94510011241FBECFEFD8E026
:10007000DEBFCDBF11E0A0E0B1E0E4E5FBE002C0EF
:1000800005900D92A238B107D9F721E0A2E8B1E0BE
:1000900001C01D92A638B207E1F70E944A010C94F4
:1000A000A8050C94000068E270E080E090E00E94F7
:1000B00075020E94A20280E70E94CA0281EE0E949D
:1000C000CA0288E00E94CA0280E00E94CA020E941E
:1000D000AA026AE070E080E090E00E94750281E090
:1000E00008954F925F926F927F928F929F92AF92FC
:1000F000BF92CF92DF92EF92FF920F931F93CF9315
:10010000DF93EC018B010E94A20280E70E94CA02E9
:100110008CEA0E94CA0283E30E94CA0280E00E9425
:10012000CA020E94AA0260E570E080E090E00E94AE
:1001300075020E94A20281E70E94CA020E94B202D6
:10014000A82E0E94B202B82E0E94B202D82E0E949F
:10015000B202C82E0E94B202F82E0E94BC02E82E03
:100160000E94AA02AA200CF474C08B2D90E0A0E09B
:10017000B0E0072E7CE0880F991FAA1FBB1F7A955D
:10018000D1F7702D4D2D50E060E070E0440F551F09
:10019000661F771F440F551F661F771F440F551F9B
:1001A000661F771F440F551F661F771F842B952BE3
:1001B000A62BB72B2C2D22952F70BC01CD01622BC5
:1001C0002C2D2F70822E912CA12CB12C540199240E
:1001D00088244F2C512C612C712C762C652C542C9E
:1001E000442484289528A628B728A50194012E29FF
:1001F00069017A010E94530420E030E040E855E3B1
:100200000E940A0520E030E048EC52E40E940A0512
:10021000F8016083718382839383C701B6010E94D2
:10022000530420E030E040E855E30E940A0520E056
:1002300030E048E453E40E940A0520E030E048E45E
:1002400052E40E94B203688379838A839B8381E0AE
:1002500001C080E0DF91CF911F910F91FF90EF904F
:10026000DF90CF90BF90AF909F908F907F906F90D6
:100270005F904F9008958AB180628AB98BB18F7D6B
:100280008BB908958BB180628BB908958BB18F7D46
:100290008BB90895CF93DF93CDB7DEB728970FB60C
:1002A000F894DEBF0FBECDBF0E94D6020E94990215
:1002B0000E943C020E9409020E943B010E94E00150
:1002C000789480E091E00E94E9020E9453000E942D
:1002D0006A026B017C0110E00E946A02DC01CB0122
:1002E0008C199D09AE09BF09803D9740A105B10554
:1002F00098F3BE016F5F7F4FCE0105960E9471009B
:10030000882309F454C085E191E00E94E9026D81DF
:100310007E818F81988541E00E944E038CE191E0BF
:100320000E94E90269817A818B819C8141E00E946F
:100330004E0386E291E00E94E902111119C06D811D
:100340007E818F81988520E030E040EF51E40E946B
:10035000050518166CF488E70E94EF010E9442011F
:100360000E94E70189E291E00E94E90211E01AC0CF
:100370001123C1F06D817E818F81988520E030E06E
:1003800048EE51E40E941F04882364F48AE00E942E
:10039000EF010E9446010E94EB0183E491E00E947C
:1003A000E90210E082E191E00E94E90204C080E6E7
:1003B00091E00E94E9020E946A026B017C018CCFED
:1003C00087B1816087B988B1816088B9089588B1A3
:1003D0008E7F88B9089588B1816088B90895853B7A
:1003E00008F084EB282F30E0A4EAB6E00E949905DB
:1003F00024EB30E040E050E00E947705205E3C4F67
:10040000220F331FF89430938B0020938A00789446
:1004100008958AB180618AB9109280008AE0809341
:1004200081008FE39CE9909389008093880086E0A7
:1004300080936F008AE00E94EF0108951F920F924F
:100440000FB60F9211248F938BB180618BB98F916E
:100450000F900FBE0F901F9018951F920F920FB61E
:100460000F9211248F938BB18F7E8BB98F910F9048
:100470000FBE0F901F90189582E084BD93E095BD4C
:1004800099EF97BD80936E0008951F920F920FB65B
:100490000F9211248F939F93AF93BF93809182010A
:1004A00090918301A0918401B09185010196A11DD5
:1004B000B11D8093820190938301A0938401B09336
:1004C0008501BF91AF919F918F910F900FBE0F90BB
:1004D0001F901895F894609182017091830180912A
:1004E000840190918501789408958F929F92AF92A4
:1004F000BF92CF92DF92EF92FF924B015C010E947C
:100500006A026B017C010E946A02DC01CB018C193A
:100510009D09AE09BF0988159905AA05BB0598F381
:10052000FF90EF90DF90CF90BF90AF909F908F9013
:100530000895E9EBF0E080818C7F808388E48093EC
:10054000B800089584EA8093BC008091BC008823A1
:10055000E4F7089584E98093BC008091BC0084FD99
:10056000FCCF089584EC8093BC008091BC0088236C
:10057000E4F78091BB00089584E88093BC008091EB
:10058000BC008823E4F78091BB0008958091B900F6
:10059000887F08958093BB0084E88093BC0080919D
:1005A000BC008823E4F70E94C60208951092C5009B
:1005B00087E68093C40088E08093C10086E0809342
:1005C000C20008959091C00095FFFCCF8093C600B3
:1005D0000895CF93DF93EC0103C021960E94E202BD
:1005E00088818111FACFDF91CF9108951F93CF9326
:1005F000DF9300D000D000D0CDB7DEB7AC01892B9F
:1006000091F580E30E94E2023FC09A01ADECBCECA0
:100610000E949905969587959695879596958795C5
:100620009C01220F331F880F991F880F991F880F75
:10063000991F820F931F9A01281B390BC901E1E012
:10064000F0E0EC0FFD1FE10FF11D805D80839A014A
:100650000E949905AC015695479556954795569534
:1006600047951F5F01C010E04115510571F60AC0A2
:100670001150E1E0F0E0EC0FFD1FE10FF11D808172
:100680000E94E2021111F4CF26960FB6F894DEBF55
:100690000FBECDBFDF91CF911F9108958F929F9292
:1006A000AF92BF92CF92DF92EF92FF921F93CF93C0
:1006B000DF936B017C01142F20E030E0A9010E9440
:1006C0001F0488233CF48DE20E94E202F7FAF094C2
:1006D000F7F8F094C701B6010E9424044B015C01B5
:1006E00080E090E00E9453049B01AC01C701B60179
:1006F0000E94B2036B017C01C4010E94F6028EE2EB
:100700000E94E202D0E020C020E030E040E251E46C
:10071000C701B6010E940A056B017C010E942404F6
:10072000C62F80E38C0F0E94E2026C2F70E080E005
:1007300090E00E9455049B01AC01C701B6010E94E4
:10074000B2036B017C01DF5FD117F0F2DF91CF9133
:100750001F91FF90EF90DF90CF90BF90AF909F9050
:100760008F9008955058BB27AA270E94CA030C9463
:10077000CB040E94BD0438F00E94C40420F039F478
:100780009F3F19F426F40C94BA040EF4E095E7FBAD
:100790000C94B404E92F0E94DC0458F3BA176207E2
:1007A00073078407950720F079F4A6F50C94FE04EE
:1007B0000EF4E0950B2EBA2FA02D0B01B90190017C
:1007C0000C01CA01A0011124FF27591B99F0593FC0
:1007D00050F4503E68F11A16F040A22F232F342F08
:1007E0004427585FF3CF469537952795A795F04056
:1007F0005395C9F77EF41F16BA0B620B730B840B6B
:10080000BAF09150A1F0FF0FBB1F661F771F881F22
:10081000C2F70EC0BA0F621F731F841F48F487957A
:1008200077956795B795F7959E3F08F0B0CF93956C
:10083000880F08F09927EE0F9795879508950E94E5
:10084000900408F481E008950E94E40488F09F5722
:1008500098F0B92F9927B751B0F0E1F0660F771FE4
:10086000881F991F1AF0BA95C9F714C0B13091F0DA
:100870000E94FE04B1E008950C94FE04672F782FC7
:100880008827B85F39F0B93FCCF38695779567959F
:10089000B395D9F73EF490958095709561957F4F0B
:1008A0008F4F9F4F0895E89409C097FB3EF49095B1
:1008B0008095709561957F4F8F4F9F4F9923A9F039
:1008C000F92F96E9BB279395F695879577956795C8
:1008D000B795F111F8CFFAF4BB0F11F460FF1BC00C
:1008E0006F5F7F4F8F4F9F4F16C0882311F096E99F
:1008F00011C0772321F09EE8872F762F05C066234D
:1009000071F096E8862F70E060E02AF09A95660F05
:10091000771F881FDAF7880F9695879597F90895BE
:10092000990F0008550FAA0BE0E8FEEF1616170600
:10093000E807F907C0F012161306E407F50798F068
:10094000621B730B840B950B39F40A2661F0232B81
:10095000242B252B21F408950A2609F4A140A695FD
:100960008FEF811D811D089597F99F6780E870E0E2
:1009700060E008959FEF80EC089500240A94161615
:10098000170618060906089500240A94121613067D
:10099000140605060895092E0394000C11F488230B
:1009A00052F0BB0F40F4BF2B11F460FF04C06F5F27
:1009B0007F4F8F4F9F4F089557FD9058440F551FFD
:1009C00059F05F3F71F04795880F97FB991F61F0D1
:1009D0009F3F79F087950895121613061406551F48
:1009E000F2CF4695F1DF08C0161617061806991FB4
:1009F000F1CF86957105610508940895E894BB27A9
:100A000066277727CB0197F908950E94900408F490
:100A10008FEF08950E941D050C94CB040E94BD0425
:100A200038F00E94C40420F0952311F00C94B40413
:100A30000C94BA0411240C94FF040E94DC0470F39B
:100A4000959FC1F3950F50E0551F629FF001729F73
:100A5000BB27F00DB11D639FAA27F00DB11DAA1F82
:100A6000649F6627B00DA11D661F829F2227B00DCF
:100A7000A11D621F739FB00DA11D621F839FA00D5A
:100A8000611D221F749F3327A00D611D231F849FAA
:100A9000600D211D822F762F6A2F11249F57504001
:100AA0009AF0F1F088234AF0EE0FFF1FBB1F661F7C
:100AB000771F881F91505040A9F79E3F510580F045
:100AC0000C94B4040C94FF045F3FE4F3983ED4F319
:100AD000869577956795B795F795E7959F5FC1F7E9
:100AE000FE2B880F911D9695879597F90895A1E2A1
:100AF0001A2EAA1BBB1BFD010DC0AA1FBB1FEE1F98
:100B0000FF1FA217B307E407F50720F0A21BB30BE2
:100B1000E40BF50B661F771F881F991F1A9469F75E
:100B200060957095809590959B01AC01BD01CF01BA
:100B30000895A29FB001B39FC001A39F700D811DB6
:100B40001124911DB29F700D811D1124911D0895D6
:040B5000F894FFCF47
:100B5400496E696369616E646F2041485431302E77
:100B64002E2E0D0A0054656D703A2000204320207B
:100B740048756D3A200020250020202D3E20566522
:100B84006E74696C6163696F6E20414354495641C8
:100B940044410020202D3E2056656E74696C6163CB
:100BA400696F6E20444553414354495641444100C2
:100BB40053656E736F72206F63757061646F2C2060
:100BC4007365207265696E74656E74612E2E2E0DC8
:020BD4000A0015
:00000001FF
