S01700006573636C61766F325F736F6D6272612E737265630B
S11300000C9434000C9451000C9451000C94510045
S11300100C9451000C9451000C9451000C94510018
S11300200C9451000C9451000C9451000C94510008
S11300300C9451000C9451000C94F3010C94510055
S11300400C9451000C9451000C9451000C945100E8
S11300500C9451000C9451000C9451000C945100D8
S11300600C9451000C94510011241FBECFEFD8E022
S1130070DEBFCDBF11E0A0E0B1E0ECE6F5E002C0E8
S113008005900D92A437B107D9F721E0A4E7B1E0B8
S113009001C01D92A538B207E1F70E9490000C94AC
S11300A0B4020C94000080E480937C0087E8809381
S11300B07A000895ECE7F0E09081907F8F70892BAF
S11300C08083EAE7F0E080818064808380917A0015
S11300D086FDFCCF8091780090917900089580E0AE
S11300E00E945A000895611106C021E0C39708F4E4
S11300F020E0822F089521E0459708F420E0822F24
S113010008958AB180648AB98BB18F7B8BB90895C5
S11301108BB180648BB908958BB18F7B8BB90895B3
S11301200E9453000E9481000E943D010E9423020C
S11301300E94EA01789480E091E00E9436020E94D5
S113014018024B015C01C0E00E9418026B017C01A3
S1130150DC01CB0188199909AA09BB09883E93409F
S1130160A105B105D8F10E946F005C016C2F0E94BB
S11301707300982E8EE191E00E943602C5010E9420
S11301804302992091F0C11110C068EB7BE080E03C
S113019090E00E9443010E94880084E291E00E9462
S11301A0360246015701C1E019C0911011C0CC2399
S11301B079F060E070E0CB010E9443010E948C0062
S11301C08AE391E00E94360246015701C0E006C06E
S11301D087E391E00E94360246015701C701B60148
S11301E00E944C01B1CF90E0FC01EE0FFF1FEE0F17
S11301F0FF1FED5AFE4F2081222321F02BB12460F2
S11302002BB903C02BB12B7F2BB9FC01EE0FFF1FC1
S1130210EE0FFF1FED5AFE4F2181222321F02BB157
S113022028602BB903C02BB1277F2BB9FC01EE0F3B
S1130230FF1FEE0FFF1FED5AFE4F2281222321F0F4
S11302402BB120612BB903C02BB12F7E2BB9880FA2
S1130250991F880F991FFC01ED5AFE4F8381882353
S113026021F08BB180628BB908958BB18F7D8BB9EE
S113027008958BB1837C8BB908958AB18C638AB954
S11302800E943901089560937801709379018093F5
S11302907A0190937B0108954F925F926F927F92BF
S11302A08F929F92AF92BF92CF92DF92EF92FF9282
S11302B00F931F9380907C0190907D01A0907E010C
S11302C0B0907F01009178011091790120917A0119
S11302D030917B0180169106A206B30609F46BC027
S11302E0C0907401D0907501E0907601F090770190
S11302F02B013C014C185D086E087F0842E044164F
S113030051046104710408F456C06093740170933D
S11303107501809376019093770180169106A20669
S1130320B306BCF4209180012F5F20938001283014
S113033014F010928001D501C4010196A11DB11DD4
S113034080937C0190937D01A0937E01B0937F0103
S113035017C02091800121502093800122231CF496
S113036027E020938001D501C4010197A109B109B7
S113037080937C0190937D01A0937E01B0937F01D3
S1130380809180010E94F30040917C0150917D0195
S113039060917E0170917F01809178019091790143
S11303A0A0917A01B0917B01481759076A077B072E
S11303B011F40E9439011F910F91FF90EF90DF908B
S11303C0CF90BF90AF909F908F907F906F905F90F1
S11303D04F90089582E084BD93E095BD99EF97BD59
S11303E080936E0008951F920F920FB60F921124FE
S11303F08F939F93AF93BF938091810190918201DA
S1130400A0918301B09184010196A11DB11D809337
S1130410810190938201A0938301B0938401BF91E1
S1130420AF919F918F910F900FBE0F901F901895D1
S1130430F89460918101709182018091830190917F
S11304408401789408951092C50087E68093C400CF
S113045088E08093C10086E08093C2000895909163
S1130460C00095FFFCCF8093C6000895CF93DF931F
S1130470EC0103C021960E942F0288818111FACFDA
S1130480DF91CF9108951F93CF93DF93CDB7DEB75C
S113049027970FB6F894DEBF0FBECDBF99232CF477
S11304A091958195910921E001C020E00097A1F484
S11304B080E30E942F0226C06AE070E00E948C0252
S11304C0E1E0F0E0EC0FFD1FE10FF11D805D8083A2
S11304D0862F972F1F5F01C010E01816190664F3CA
S11304E0222371F08DE20E942F020AC01150E1E034
S11304F0F0E0EC0FFD1FE10FF11D80810E942F023F
S11305001111F4CF27960FB6F894DEBF0FBECDBFFE
S1130510DF91CF911F91089597FB072E16F4009455
S113052007D077FD09D00E94A00207FC05D03EF455
S1130530909581959F4F0895709561957F4F08958B
S1130540AA1BBB1B51E107C0AA1FBB1FA617B707F5
S113055010F0A61BB70B881F991F5A95A9F7809511
S10F05609095BC01CD010895F894FFCFE4
S113056C5065726966657269636F2032202D205361
S113057C6F6D627261206C6973746F0D0A004C4468
S113058C523A2000202D3E20536F6D62726120413F
S113059C435449564144410D0A00202D3E20536FCB
S11305AC6D62726120444553414354495641444160
S11305BC0D0A000100000001010000000100000010
S11305CC0101000000010000000101000000010114
S10705DC0000010016
S9030000FC
