:100000000C9434000C9451000C9451000C94510049
:100010000C9451000C9451000C9451000C9451001C
:100020000C9451000C9451000C9451000C9451000C
:100030000C9451000C9451000C9451000C945100FC
:100040000C9451000C9451000C9451000C945100EC
:100050000C9451000C9451000C9451000C945100DC
:100060000C9451000C94510011241FBECFEFD8E026
:10007000DEBFCDBF11E0A0E0B1E0E0E7F1E002C0FB
:1000800005900D92AC30B107D9F721E0ACE0B1E0BA
:1000900001C01D92A231B207E1F70E946F000C94DB
:1000A000B6000C9400009093C5008093C40088E0D3
:1000B0008093C10086E08093C20008959091C000B3
:1000C00095FFFCCF8093C60008958AB182608AB9FB
:1000D0008AB183708AB98BB18C6F8BB9089587E62A
:1000E00090E00E9453000E946500C0E0C630B8F561
:1000F00089B10C2F10E0F801EA5FFE4F208190E0FB
:10010000022E02C0959587950A94E2F780FD21C0E2
:10011000F801E45FFE4F808181111FC08FEF9CE7E3
:100120000197F1F700C0000089B190E002C09595F9
:1001300087952A95E2F780FD10C0F801E050FF4F47
:1001400080810E945E00F801E45FFE4F81E08083C1
:1001500004C0F801E45FFE4F1082CF5FC7CF8FE38A
:100160009FE10197F1F700C00000BFCFF894FFCFE7
:0C01700055444C524142020304050607AE
:00000001FF
